:100000000C943D010C941B0C0C94F00B0C94C50B40
:100010000C949A0B0C946F0B0C94440B0C94190BCE
:100020000C94EE0A0C9467010C94110E0C94670169
:100030000C9467010C9467010C9467010C946701A0
:100040000C94A40A0C9467010C9467010C9467014A
:100050000C9467010C9467010C9467010C94670180
:100060000C9467010C9467010C9467010C94670170
:100070000C9467010C94760D0C9467010C94670145
:100080000C9467010C94460C0C946701400300002B
:10009000000000120D0000000000000101C08000FF
:1000A000000000000000000000060000000000004A
:1000B0000000000000000000000000000000000040
:1000C000000000000000FF1F001E000000000000F4
:1000D0000000000000000000000000000000000020
:1000E0000000000000000000000000000000000010
:1000F00000000000000000000000000002001400EA
:10010000030014000400140005001400060014008D
:100110000700140008001400090014000A0014006D
:100120000B0014000C0014000D0014000E00100051
:100130000F0010001000100011001000120010003D
:10014000130010001400100015001000160010001D
:100150001700100018001000190010001A001400F9
:100160001B0014001C001400010014000100140006
:10017000010014000100140001001400010014002B
:1001800000801F0000811F00FF000000FF00000032
:10019000FF000000FF000000FF0000000000000062
:1001A000000000000000000000000000000000004F
:1001B00000000000000000000000003A003700349A
:1001C00000310022006100640000003B003800356F
:1001D00000320023006200650005050505050505E0
:1001E00005020202020202020207070404040404D8
:1001F00004040407070303030303030303070101C4
:1002000001010101010106060606060606060102B5
:1002100004081020408001020408102040800810CB
:10022000010204081020408001020102040810208D
:1002300040800480402010080402010102040810DC
:100240002040800000000A0B0C00000000000001AC
:10025000040506000000000000000000000000008F
:10026000000000000000000000000000000000008E
:1002700000000000000000005E0E11241FBECFEF42
:10028000D0E1DEBFCDBF11E0A0E0B1E0EAEBF1E2EA
:1002900000E00BBF02C007900D92A63BB107D9F753
:1002A00022E0A6EBB1E001C01D92A03CB207E1F74D
:1002B00011E0CDE3D1E004C02197FE010E948A0F36
:1002C000CC33D107C9F70E946F0E0C94DB100C944D
:1002D00000009091AF0281E0913208F043C080911C
:1002E0008B028111FCCF8091AE0222E020938B0221
:1002F00021E020938A022FEF209389022EE832E03A
:100300003093880220938702109286029093850290
:100310001092840290918402880F892B809384022A
:1003200080918302813029F51092830280918402AA
:10033000809373008091740083FDF8CF85EC8093E7
:10034000740080918B028230E1F3809189028F3FAB
:1003500091F080918902803281F08091890280330E
:1003600071F084E010928D021092AF0210928C0214
:10037000089585EEE4CF80E0F5CF82E0F3CF83E00F
:10038000F1CF90E0FC01ED5BFD4F2491FC01E25FB9
:10039000FD4F349187529E4FFC018491882341F197
:1003A0002223C1F021502C30A8F4E22FF0E0E552D6
:1003B000FE4F0C948A0F11021102EA01E701F901C4
:1003C000FC01FF01EA01EA01030209020D029FB5E7
:1003D0009F779FBDE82FF0E0EE0FFF1FE753FE4F22
:1003E000A591B4918FB7F894EC913E2B3C938FBFBD
:1003F00008959FB59F7DEDCF9FB5977FEACF95B5C7
:100400009F7D95BDE7CF90918B009F7790938B0058
:10041000E1CF90918B009F7DF9CF90918B00977FDA
:10042000F5CF93B79F7D93BFD5CFE82FF0E0E75985
:10043000FD4F8085861739F06087618B80916B0254
:10044000836080936B020895262F30E090916F02B5
:100450009078691729F090916B029C6090936B02E1
:100460003695322F222737952795822B80936F025E
:10047000809370020895E0914702F091480230970E
:1004800029F010928D021092AF0209940895CF9333
:10049000DF93AC01E0914502F09146023097F1F014
:1004A00090914402809143029817C0F090E0292F68
:1004B00030E02617370754F4D901A054BE4F240F5B
:1004C000351FE90128812C939F5FF1CF10924402E0
:1004D00060934302CB01DF91CF910994DF91CF91DB
:1004E000089508958091430290914402891B990BCD
:1004F000089585ED809374008091740084FDFCCF95
:1005000010928B02089520910002260F3327331F8B
:1005100021323105ECF420918B02FC0190E080E067
:10052000243069F082E00895A09100022191AC018D
:1005300040525E4FA40FB52FB11D2C930196861724
:1005400098F380910002680F6093000280E00895A4
:1005500081E008950895E091440280914302E817F4
:1005600030F4F0E0E054FE4F808190E008958FEF8A
:100570009FEF089590914402809143022FEF3FEF47
:10058000981748F4E92FF0E0E054FE4F208130E066
:100590009F5F90934402C9010895CF92DF92EF923A
:1005A000FF920F931F93CF93DF937C01CB018A01BE
:1005B00020918C02222389F0EB016B01C40ED51E21
:1005C000CC15DD0569F06991D701ED91FC910190A1
:1005D000F081E02DC7010995F3CF642F0E948302BB
:1005E000C801DF91CF911F910F91FF90EF90DF90A5
:1005F000CF900895CF93DF931F92CDB7DEB7698375
:1006000020918C022223F9F02091AF02203258F081
:1006100021E030E0FC013383228390E080E00F9002
:10062000DF91CF91089580918D02E82FF0E0E2579D
:10063000FD4F998190838F5F80938D028093AF02ED
:1006400081E090E0ECCF61E0CE0101960E94830250
:10065000F7CF1F93CF93DF93C7E3D2E0188169816F
:1006600080EB92E00E94FA02612F80EB92E00E9400
:10067000FA026A8180EB92E0DF91CF911F910C9496
:10068000FA0290E080E0089580E090E0892B29F064
:100690008091680283FD0C9400000895009731F169
:1006A00060916C0270916D028617970709F06DC01A
:1006B00041504A30D8F4E42FF0E0EF59FC4F0C944D
:1006C0008A0F6B037703820392039903A003A703A6
:1006D000AE03B503BD0380917102281739F0209352
:1006E000710280916B02816080936B0208959091FA
:1006F000720280EF820F292B28239217B9F32093DF
:100700007202EFCF3091720240E1249FC0011124A8
:10071000832B2295207F215F8223381739F3809322
:100720007202DFCF80917302281701F320937302C6
:10073000D8CF809174022817C9F220937402D1CFC8
:1007400080917502281791F220937502CACF80918B
:100750007602281759F220937602C3CF8091770250
:10076000281721F220937702BCCF809178022817B6
:1007700009F4BCCF20937802B4CF80917902281776
:1007800009F4B4CF20937902ACCF30916E023F7759
:100790003817190609F0AACF4230A1F018F44130F9
:1007A00031F008954330D1F0443049F108958091FB
:1007B0007A02281709F49ACF20937A0280916B026B
:1007C000826092CF90917B0280EF820F292B2823A9
:1007D000921709F48BCF20937B02F0CF30917B02EC
:1007E00040E1249FC0011124832B2295207F215FAB
:1007F0008223381709F47ACF80937B02DFCF809170
:100800007C02281709F472CF20937C02D7CF0F9374
:10081000009721F160916C0270916D028617970725
:1008200029F5822F90E030916F023078231729F05C
:1008300020916B02246020936B020D3189F00F37F9
:1008400079F00F3081F49C013695322F22273795AD
:10085000279580916F02822B80936F020F910895EC
:1008600040936F02F0CF10926F02EDCF30916E0285
:100870003F773817190691F7822F90E03091700278
:100880003078231729F020916B02286020936B02A7
:100890009695982F882797958795482B40937002B7
:1008A000DDCF8150833208F08AC0E82FF0E0E55AAE
:1008B000FB4F0C948A0F7E04800482048404860417
:1008C00088048A048C048E049004920498049C0486
:1008D000A204A604AA04AE04B204B604BA04BC047A
:1008E000BE04C004C204C404C604C804CC04D004BA
:1008F000D204D404D604D804DC04DE04C2980895DB
:100900001D9808951C9808951B9808951A980895A5
:10091000C69808959798089596980895959808957B
:1009200094980895809165008F7E80936500089566
:1009300080916500877FF9CF809162008F7E8093E0
:100940006200089580916200877FF9CF80916200F4
:100950008B7FF5CF809162008D7FF1CF8091620017
:100960008E7FEDCF809165008E7FDFCF8091650017
:100970008D7FDBCFA8980895A9980895AA98089527
:10098000AB980895AC980895C4980895C3980895B5
:10099000809162008F7DD3CF809162008F7BCFCF1B
:1009A000C7980895DE980895D9980895DF98089516
:1009B000809165008B7FB9CFC5980895AD98089553
:1009C0001F93CF93DF93EC018A819B8110E0892BE9
:1009D000E9F48D819E8110E0892B69F588818E7FF5
:1009E0008883DF91CF911F910895812F90E0880F28
:1009F000991FEA81FB81E80FF91F0190F081E02D3A
:100A000080818F7780830E9451041F5F898118172E
:100A100060F3DFCF812F90E0880F991FED81FE8179
:100A2000E80FF91F0190F081E02D80818F7780839E
:100A30000E9451041F5F8C81181760F3CFCFFC0117
:100A400090819570953019F4CF010C94E0040895CD
:100A5000FC01208120FF03C022FF0C94E0040895D4
:100A60008150833208F08AC0E82FF0E0E65CFA4F4C
:100A70000C948A0F5D055F056105630565056705D3
:100A800069056B056D056F05710577057B058105AA
:100A9000850589058D059105950599059B059D059C
:100AA0009F05A105A305A505A705AB05AF05B105E4
:100AB000B305B505B705BB05BD05C29A08951D9AD6
:100AC00008951C9A08951B9A08951A9A0895C69A33
:100AD0000895979A0895969A0895959A0895949AE4
:100AE00008958091650080618093650008958091EC
:100AF00065008860F9CF8091620080618093620018
:100B00000895809162008860F9CF809162008460CE
:100B1000F5CF809162008260F1CF809162008160A8
:100B2000EDCF809165008160DFCF809165008260AC
:100B3000DBCFA89A0895A99A0895AA9A0895AB9A26
:100B40000895AC9A0895C49A0895C39A089580911F
:100B500062008062D3CF809162008064CFCFC79A59
:100B60000895DE9A0895D99A0895DF9A089580919C
:100B700065008460B9CFC59A0895AD9A08959091A3
:100B80006B02882361F0906190936B0281E00E9478
:100B9000300580918A00887F80938A0008959F7E27
:100BA00090936B0281E00E94510410928800109291
:100BB000890080918A008460EFCFCF93C82F809105
:100BC00051028C1719F08C2F0E94BF05C09351025F
:100BD000CC23F9F02FB7F89480914B0290914C02FE
:100BE000A0914D02B0914E022FBF482F392F2A2FCE
:100BF0008B2F4093520230935302209354028093E0
:100C00005502809151028C1749F08C2FCF910C9492
:100C1000BF0540E030E020E080E0EBCFCF910895C9
:100C20000F931F93CF938C01C0E0F8018181C81707
:100C300020F0CF911F910F9108958C2F90E0880F95
:100C4000991FD8011296ED91FC91E80FF91F0190C0
:100C5000F081E02D8081982F906890838F770E949B
:100C60003005CF5FE2CF1F93CF93DF93EC01288154
:100C7000322F357099F4322F3160388321FF09C04B
:100C80002A813B81232B51F0DF91CF911F910C944E
:100C900010062D813E8110E0232BB9F4DF91CF9116
:100CA0001F910895812F90E0880F991FED81FE819B
:100CB000E80FF91F0190F081E02D8081982F906856
:100CC00090838F770E9430051F5F8C81181750F337
:100CD000E5CFCF93DF93EC018881982F927069174D
:100CE00089F0662369F082608883888180FF0AC06A
:100CF000CE010E942805CE01DF91CF910C943306DE
:100D00008D7FF2CFDF91CF9108951F93CF93DF9323
:100D1000EC01288120FD15C022FF13C0322F316065
:100D2000388321FF09C02A813B81232B51F0DF91B9
:100D3000CF911F910C9410062D813E8110E0232B42
:100D4000B9F4DF91CF911F910895812F90E0880F22
:100D5000991FED81FE81E80FF91F0190F081E02DD0
:100D60008081982F906890838F770E9430051F5F55
:100D70008C81181750F3E5CFCF93DF93EC01888176
:100D8000982F9270691789F0662369F082608883D2
:100D9000888180FF0AC0CE010E941F05CE01DF912D
:100DA000CF910C9485068D7FF2CFDF91CF9108957E
:100DB000AF9A8FE79EE30197F1F700C00000AF986C
:100DC00008950C94D8061F93CF93DF93EC01809184
:100DD0006B0284FF0BC08FE090E00E94710F182F10
:100DE00080E190E00E94710F181306C0CE01DF91E0
:100DF000CF911F910C94710FFFCF0C94E306CF930A
:100E0000DF9320916502309166022F3F320721F077
:100E1000C901DF91CF9108958091680287FF2BC0AF
:100E200086FF0FC089E090E00E94FD06C82F81E098
:100E300090E00E94FD069C2F9093660280936502CD
:100E400015C089E090E00E94FD06C82F81E090E087
:100E50000E94FD0690E4C99F90011124207C31700E
:100E60008F73282B30936602209365028091650270
:100E700090916602CECF85FF0CC081E190E00E9488
:100E8000FD06C82F82E190E00E94FD06C05CDD0BEC
:100E9000D2CF81E090E00E94FD0690E0CDCFCF93CD
:100EA000863823E0920719F138F4813823E092075D
:100EB000D9F0CF910C94710F873823E09207D1F0CD
:100EC000883823E09207A9F786E893E00E94710F23
:100ED000C82F87E893E00E94710F90E02FEFC29F28
:100EE000800D911D1124E5CF81E893E0E2CF86E8E3
:100EF00093E0DFCF87E893E0DCCF0F931F93CF938E
:100F0000DF93EC01162FC63883E0D80781F150F447
:100F1000C13883E0D807F9F0612FCE010E94790F24
:100F2000CE011FC0C73883E0D80741F1C83883E03D
:100F3000D80791F786E893E00E94710F082F87E8A1
:100F400093E00E94710FC82FD0E08FEF089FC00D73
:100F5000D11D1124E1CF81E893E00E94790F81E84F
:100F600093E0DF91CF911F910F910C94710F86E860
:100F700093E00E94790F86E893E0F3CF87E893E04F
:100F80000E94790F87E893E0ECCFCF93DF93D0E016
:100F9000C0E0FE01E457FF4F6491CE010E94790F3B
:100FA0002196CD3281E0D807A1F761E081E893E096
:100FB0000E94790FC0E0CF5F8C2F0E943005C332B2
:100FC000D1F7DF91CF9108950C94C5071F93CF936C
:100FD000DF93209146012223C1F02FEF3FEF3093A2
:100FE00026022093250230932A022093290230936F
:100FF0002E0220932D02309332022093310230933F
:101000003602209335021092460182309105C9F0D4
:101010008330910509F458C020E030E0232B11F013
:101020000E9400008091430290914402891B990B19
:10103000181619060CF044C080EB92E00E94BA0228
:10104000F1CFE3E2F2E0D0E0C0E08281938101964B
:10105000E9F4CC0FDD1FCC0FDD1FCD5DDD4F1B8212
:101060001A8280EB92E00E94BA02888380EB92E0C1
:101070000E94BA028983E0914902F0914A023097B6
:10108000C9F4D0934A02C09349021AC021963496FB
:10109000C530D105D1F68091430290914402891B5D
:1010A000990B1816190664F480EB92E00E94BA02BC
:1010B000F2CFFC01828193810097D9F7D383C28359
:1010C000DF91CF911F91089580EB92E00E94BA02C8
:1010D000182F80EB92E00E94BA02D12F90E0C92F26
:1010E000C80FD11DD0933802C093370280EB92E035
:1010F0000E94BA02682F80933902CE01D7FF21C027
:101100009F7790933802809337028830910561F081
:10111000843823E0920741F08C3A23E0920721F0D3
:10112000843D23E0920741F481E8683039F4DF918F
:10113000CF911F910C94C5070E947D0780933902BF
:10114000BFCF0E944F07FACF1F93CF93DF93EC01DD
:10115000162F089779F4662319F10E94C50780E0DD
:1011600090E0892BB9F0612FCE01DF91CF911F91D3
:101170000C94000080E090E0892BA9F781E0C11574
:1011800090E1D90708F080E0111105C0DF91CF91FF
:101190001F91089581E027972297C0F780E0F6CF4E
:1011A00080E090E0892BF9F681E0F0CF0F931F9358
:1011B000CF93DF93EC01162F80916B0284FF25C043
:1011C000CF30D10561F48FE090E00E94790F8FE07D
:1011D00090E0DF91CF911F910F910C94710F8FE0F0
:1011E00090E00E94710F082F80E190E00E94710F43
:1011F00008130AC0C730D10531F0C830D10529F431
:10120000183049F0FFCFFFCFFFCF612FCE010E94F2
:10121000790FCE01DECF0E94C50788E0DF91CF9124
:101220001F910F9108950E94DD05EFE4F2E081E047
:1012300087831086E8E5F2E088E0DF011D928A9559
:10124000E9F708958331910588F48131910530F4EF
:101250008130910519F08930910531F42FEF3FEF7E
:1012600030936602209365020C94D6088D31910567
:10127000D9F7677F6093680220914F022F73362F52
:10128000307C232B20934F02E9CFBF92CF92DF9285
:10129000EF92FF920F931F93CF93DF938B01B42EA6
:1012A000690182FF23C083FF17C061E0C8010E946B
:1012B000A4088823D9F16B2DC8010E9422098B1143
:1012C00035C0F601DF91CF911F910F91FF90EF9004
:1012D000DF90CF90BF90099460E0C8010E94A408FD
:1012E000882321F1C8010E94FD06E9CF842F877071
:1012F000C1E0D0E07E0101C0EE0C8A95EAF7D42F60
:10130000D870CB010E94FD06C82FB4FE1CC061E05E
:10131000C8010E94A408882349F0DD2389F0CE2962
:101320006C2FC8010E9422098C1759F2DF91CF91CE
:101330001F910F91FF90EF90DF90CF90BF90089595
:10134000E094CE21EDCF60E0C8010E94A40888237C
:1013500069F3CE21DD2319F0C111B3CFE7CFCC2340
:1013600009F4AFCFE3CFAF92BF92DF92EF92FF923B
:101370000F931F93CF93DF937C01162FC42FD22E90
:10138000D42FD07E80914F0287FF2CC0D03EC1F574
:10139000A0905002AA20A1F1B12CC5010E94FD0627
:1013A000D82FC50101960E94FD06982F8D2FE816B3
:1013B000F90631F56C2F70E0762F6627662773707B
:1013C0006D296F5F7F4F24E433E0402F8C2FDF9136
:1013D000CF911F910F91FF90EF90DF90BF90AF9052
:1013E0000C94450980FD33C0D03609F464C090F4F4
:1013F000D03209F449C0D03409F45DC0DD2381F155
:10140000DF91CF911F910F91FF90EF90DF90BF90F0
:10141000AF900895D03A09F484C090F42C2F2F7126
:1014200041E0D03869F7612FC701DF91CF911F915B
:101430000F91FF90EF90DF90BF90AF900C944E0310
:10144000D03C09F475C0D03E09F4B4CFD9CF0E9486
:10145000FF068E159F0541F2E114F10429F2D0CF69
:101460008C2F8E7069F680E090E0892B49F28C2FEA
:101470008170DF91CF911F910F91FF90EF90DF90DE
:10148000BF90AF900C940000CF71CF3109F0B8CF6E
:101490004D2D4F7761F0413061F02D2D221F222715
:1014A000221F0DE1612FC7010E940704A9CF41E06F
:1014B000F4CF40E0F2CF2C2F30E08C2F8F718130B1
:1014C00029F030F0803121F0813109F540E001C090
:1014D00041E095E0359527959A95E1F721700DE16A
:1014E000612FC7010E94070480E090E0892B09F476
:1014F00087CF4C2F612FC701DF91CF911F910F91A3
:10150000FF90EF90DF90BF90AF900C940000C90166
:10151000880F991F8E71C4FB442740F9482B425015
:10152000D8CF2C2F2F7043E0C4FF7DCF42E07BCF7C
:10153000CF71CE3131F0CF3109F062CF2D2D45E0A2
:1015400072CF2D2D44E06FCF1F920F920FB60F92E6
:1015500011242F933F938F939F93AF93BF938091C9
:101560004B0290914C02A0914D02B0914E023091ED
:101570003E0223E0230F2D3768F126E8230F029661
:10158000A11DB11D20933E0280934B0290934C020B
:10159000A0934D02B0934E0280913A0290913B028B
:1015A000A0913C02B0913D020196A11DB11D809316
:1015B0003A0290933B02A0933C02B0933D02BF914C
:1015C000AF919F918F913F912F910F900FBE0F90F0
:1015D0001F9018950196A11DB11DD4CF1F920F9297
:1015E0000FB60F9211240BB60F922F933F934F9388
:1015F0005F936F937F938F939F93AF93BF93EF937B
:10160000FF93E0915501F09156010995FF91EF91FB
:10161000BF91AF919F918F917F916F915F914F910A
:101620003F912F910F900BBE0F900FBE0F901F9008
:1016300018951F920F920FB60F9211240BB60F92AE
:101640002F933F934F935F936F937F938F939F93CA
:10165000AF93BF93EF93FF93E0915301F091540147
:101660000995FF91EF91BF91AF919F918F917F91DC
:101670006F915F914F913F912F910F900BBE0F9003
:101680000FBE0F901F9018951F920F920FB60F92DA
:1016900011240BB60F922F933F934F935F936F9349
:1016A0007F938F939F93AF93BF93EF93FF93E091BB
:1016B0005101F09152010995FF91EF91BF91AF91C6
:1016C0009F918F917F916F915F914F913F912F915A
:1016D0000F900BBE0F900FBE0F901F9018951F928A
:1016E0000F920FB60F9211240BB60F922F933F93C8
:1016F0004F935F936F937F938F939F93AF93BF931A
:10170000EF93FF93E0914F01F09150010995FF9104
:10171000EF91BF91AF919F918F917F916F915F9169
:101720004F913F912F910F900BBE0F900FBE0F90D6
:101730001F9018951F920F920FB60F9211240BB69F
:101740000F922F933F934F935F936F937F938F935A
:101750009F93AF93BF93EF93FF93E0914D01F0916F
:101760004E010995FF91EF91BF91AF919F918F919C
:101770007F916F915F914F913F912F910F900BBE91
:101780000F900FBE0F901F9018951F920F920FB6DB
:101790000F9211240BB60F922F933F934F935F93A9
:1017A0006F937F938F939F93AF93BF93EF93FF9329
:1017B000E0914B01F0914C010995FF91EF91BF91A0
:1017C000AF919F918F917F916F915F914F913F91D9
:1017D0002F910F900BBE0F900FBE0F901F9018957A
:1017E0001F920F920FB60F9211240BB60F922F93E8
:1017F0003F934F935F936F937F938F939F93AF9399
:10180000BF93EF93FF93E0914901F0914A0109954D
:10181000FF91EF91BF91AF919F918F917F916F91C8
:101820005F914F913F912F910F900BBE0F900FBE84
:101830000F901F9018951F920F920FB60F921124C0
:101840000BB60F922F933F934F935F936F937F93BA
:101850008F939F93AF93BF93EF93FF93E0914701D3
:10186000F09148010995FF91EF91BF91AF919F9140
:101870008F917F916F915F914F913F912F910F9039
:101880000BBE0F900FBE0F901F9018951F920F92D6
:101890000FB60F9211240BB60F922F933F934F93D5
:1018A0005F936F937F938F939F93AF93BF93EF93C8
:1018B000FF9380917100887F803609F44DC008F055
:1018C00040C0883209F4A9C028F5803109F49DC0D0
:1018D000C8F4882309F407C1883009F496C0FF9141
:1018E000EF91BF91AF919F918F917F916F915F9198
:1018F0004F913F912F910F900BBE0F900FBE0F9005
:101900001F901895883109F488C0803241F7809380
:10191000890214C0803409F4A5C040F48033B9F3BF
:101920008833E9F68093890285ECBCC0803509F4E0
:1019300089C0883509F49EC0883489F60E947902EE
:10194000CECF883909F494C038F5883729F050F49F
:10195000883611F0803719F683E080938B0210925D
:10196000220257C0883809F483C0803919F08038C2
:1019700009F0B5CF80912202803208F079C0E09161
:10198000220281E08E0F8093220280917300F0E0AA
:10199000EE5FFD4F80833DC0803B39F0E0F4803A3C
:1019A00009F485C0883A09F09ACF84E080938B02CD
:1019B0001092010210920002E0914102F091420265
:1019C00009958091000281110FC081E0809300028F
:1019D0001092E00109C0803C09F4A6CF883C09F4CC
:1019E000A3CF883B09F07BCFE091010281E08E0F0D
:1019F00080930102F0E0E052FE4F808180937300FB
:101A0000909101028091000231C080918402809304
:101A1000730085EC8093740062CF90918602809170
:101A200085029817B8F58091870290918802E0911D
:101A3000860221E02E0F20938602E80FF92FF11D78
:101A40008081E5CF2091870230918802E091860263
:101A500081E08E0F8093860280917300E20FF32F56
:101A6000F11D80839091860280918502981788F2FB
:101A700085E8D0CF2091870230918802E0918602DC
:101A800081E08E0F8093860280917300E20FF32F26
:101A9000F11D808380918A02811150CF81E0809373
:101AA000830284EA8093740010928B0218CF85EC35
:101AB0008093740010928B0280912202803230F465
:101AC000E0912202F0E0EE5FFD4F10826091220271
:101AD00070E0E0913F02F091400282E092E00995CF
:101AE00010922202FCCE1092890228CF1F920F92F0
:101AF0000FB60F9211240BB60F92EF92FF920F9335
:101B00001F932F933F934F935F936F937F938F9385
:101B10009F93AF93BF93CF93DF93EF93FF930FB652
:101B2000F894A89581B5886181BD11BC0FBE7894E9
:101B300085B78F7D85BF1092BF01C1E0D1E0D09302
:101B40008C02C093AE0210928D021092AF020E94DE
:101B50006901811105C08091BF018F5F8093BF0132
:101B6000CF5FCF3761F78091BD019091BE010097A3
:101B700031F00E944B101092BE011092BD01D09125
:101B8000BF01DD2371F161E070E08D2F90E00E94D4
:101B9000930F7C019093BE018093BD0110E0C1E0E2
:101BA00001E000938C02C093AE0210928D0210925D
:101BB000AF020E946901811105C0F701E10FF11D1B
:101BC000C0831F5FCF5FCF3761F7D23050F0809175
:101BD0008A00887F80938A0080917D008B7F80932C
:101BE0007D00109288001092890085B7806285BFC1
:101BF000FF91EF91DF91CF91BF91AF919F918F9125
:101C00007F916F915F914F913F912F911F910F9114
:101C1000FF90EF900F900BBE0F900FBE0F901F9094
:101C200018951F920F920FB60F9211240BB60F92B8
:101C30002F933F934F935F936F937F938F939F93D4
:101C4000AF93BF93CF93DF93EF93FF937894CDE55A
:101C5000D1E0E991F991808187FF08C08F772091C9
:101C6000BC019181921720F10E94300581E0C33AB6
:101C7000D80779F786E984BD8091BC018F5F8032F7
:101C8000D1F08093BC01FF91EF91DF91CF91BF9193
:101C9000AF919F918F917F916F915F914F913F9104
:101CA0002F910F900BBE0F900FBE0F901F901895A5
:101CB0000E945104DBCF1092BC01E5CFE0EBF2E0D3
:101CC0001382128288EE93E0A0E0B0E084839583D3
:101CD000A683B78387EA91E09183808308957894FF
:101CE00083B78C6483BF87B7816087BF82E08EBD76
:101CF0008EB581608EBD8FB581608FBD85B58460E6
:101D000085BD85B5806485BD80918A0083608093A0
:101D10008A0080918B00816080938B0087E886B970
:101D20001AB80FB6F894A89581B5886181BD11BC29
:101D30000FBE1ABA17BA14BA11BA12B810926100CB
:101D400010926400EFE0F2E02491EAEDF1E084917A
:101D5000882399F090E0880F991FFC01E754FE4F0B
:101D6000A591B491FC01E753FE4F859194918FB7F3
:101D7000F894EC91E22BEC938FBF81E00E94C101BB
:101D8000109244021092430210928D021092AF0200
:101D900010928B0281E080938A021092830283E189
:101DA0000E94C10182E10E94C101809171008C7F7B
:101DB0008093710088E48093700085E480937400C0
:101DC0008BE392E0909342028093410287E492E099
:101DD0009093400280933F0282E0809372008CE0F7
:101DE0008093700086EE97E09093460280934502C0
:101DF00089E293E09093480280934702BA9A159A39
:101E0000149A139A129ABE9A8F9A8E9A8D9A8C9AD5
:101E10008091640080618093640080916400886098
:101E20008093640080916100806180936100809163
:101E3000610088608093610080916100846080937C
:101E400061008091610082608093610080916100F7
:101E50008160809361008091640081608093640060
:101E600080916400826080936400A09AA19AA29AF3
:101E7000A39AA49ABC9ABB9A8091610080628093D5
:101E8000610080916100806480936100BF9AD69A5E
:101E9000D19AD79A80916400846080936400BD9A3F
:101EA000A59A0DE511E0F801C191D1918F018881CA
:101EB000982F906898838F770E943005FFEF23ED6D
:101EC00080E3F15020408040E1F700C000008881AD
:101ED0008F7788830E94510491E0033A190719F71C
:101EE000E0CFE199FECF9FBB8EBBE09A99278DB3DF
:101EF0000895262FE199FECF9FBB8EBBE09A0197F4
:101F00000DB2021631F02DBB0FB6F894E29AE19AA9
:101F10000FBE0895EE0FFF1F0024001C0BBE07909C
:101F2000F691E02D09940F931F93CF93DF93869F33
:101F30008001879F100D969F100D1124C8010E94EB
:101F4000AF0FEC01009729F0A80170E060E00E945B
:101F5000D410CE01DF91CF911F910F9108950F936F
:101F60001F93CF93DF938230910510F482E090E0CD
:101F7000E091BE02F091BF0230E020E0B0E0A0E0CE
:101F8000309799F42115310509F44AC0281B390B03
:101F900024303105D8F58A819B816115710589F15D
:101FA000FB0193838283FE0111C040815181028134
:101FB000138148175907E0F04817590799F410970B
:101FC00061F012960C93129713961C933296CF01E0
:101FD000DF91CF911F910F9108950093BE0210934E
:101FE000BF02F4CF2115310551F04217530738F0E5
:101FF000A901DB019A01BD01DF01F801C1CFEF01A9
:10200000F9CF9093BF028093BE02CDCFFE01E20FC5
:10201000F31F819391932250310939832883D7CFBD
:102020002091BC023091BD02232B41F42091590133
:1020300030915A013093BD022093BC022091570188
:10204000309158012115310541F42DB73EB740912B
:102050005B0150915C01241B350BE091BC02F091B7
:10206000BD02E217F307A0F42E1B3F0B2817390718
:1020700078F0AC014E5F5F4F2417350748F04E0FE4
:102080005F1F5093BD024093BC02819391939FCFF9
:10209000F0E0E0E09CCFCF93DF930097E9F0FC0104
:1020A000329713821282A091BE02B091BF02ED015D
:1020B00030E020E01097A1F420813181820F931F3E
:1020C0002091BC023091BD022817390709F061C088
:1020D000F093BD02E093BC02DF91CF910895EA0135
:1020E000CE17DF07E8F54A815B819E014115510556
:1020F000B1F7E901FB83EA8349915991C40FD51FD8
:10210000EC17FD0761F4808191810296840F951F81
:10211000E90199838883828193819B838A83F0E09C
:10212000E0E012968D919C9113970097B9F52D914F
:102130003C911197CD010296820F931F2091BC0212
:102140003091BD022817390739F6309751F51092B2
:10215000BF021092BE02B093BD02A093BC02BCCFDE
:10216000D383C28340815181840F951FC817D9073B
:1021700061F44E5F5F4F88819981480F591F5183E9
:1021800040838A819B81938382832115310509F0E5
:10219000B0CFF093BF02E093BE029ECFFD01DC0101
:1021A000C0CF13821282D7CFDC0101C06D934150A2
:0A21B0005040E0F70895F894FFCFC7
:1021BA0023FF22FF21FF20FF1FFF1EFF1DFF1CFF21
:1021CA001BFF1AFF19FF18FF17FF16FF15FF14FF51
:1021DA0013FF12FF11FF10FF0FFF0EFF0DFF0CFF81
:1021EA000BFF0AFF09FF08FF07FF06FF05FF04FFB1
:1021FA0003FF02FF01FF017102000000000000005E
:10220A00000000000000000000C0028000440142FB
:10221A000140013E013C013A0138013601340132E4
:10222A000130012E012C012A012801260124012254
:10223A000120011E011C011A0118011601140112C4
:10224A000110010E010C010A010801060104010234
:10225A0001000100000000FA02CD024103AA027245
:06226A0002BA02AB020003
:00000001FF
