:100000000C946D010C94DA110C94AF110C948411C2
:100010000C9459110C942E110C9403110C94D810BB
:100020000C94AD100C9497010C94D0130C94970180
:100030000C9497010C9497010C9497010C949701E0
:100040000C9463100C9497010C9497010C949701F5
:100050000C9497010C9497010C9497010C949701C0
:100060000C9497010C9497010C9497010C949701B0
:100070000C9497010C9435130C9497010C949701F0
:100080000C9497010C9405120C9497014003000006
:10009000000000120D0000000000000101C08000FF
:1000A000000000000000000000060000000000004A
:1000B0000000000000000000000000000000000040
:1000C000000000000000FF1F001E000000000000F4
:1000D0000000000000000000000000000000000020
:1000E0000000000000000000000000000000000010
:1000F00000000000000000000000000002001E00E0
:1001000003001E0004001E0005001E0006001E0065
:1001100007001E0008001E0009001E000A001E0045
:100120000B001E000C001E000D001E000E00100033
:100130000F0010001000100011001000120010003D
:10014000130010001400100015001000160010001D
:100150001700100018001000190010001A001E00EF
:100160001B001E001C001E0001001C0001001C00E2
:1001700001001C0001001C0001001C0001001C000B
:1001800000801F0000811F00FF000000FF00000032
:10019000FF000000FF000000FF0000000000000062
:1001A000000000000000000000000000000000004F
:1001B0000000000000000000007000740078007C67
:1001C000008000840088008C009000940098009CBF
:1001D00000A000A400A800AC00B000B400B800BCAF
:1001E00000C000C400C800CC00D000D400D800DC9F
:1001F00000E000E400E800EC00F000F400F800FC8F
:10020000000001040108010C0100003A003700342D
:100210000031002200610064000000390036003324
:1002200000300021002000630000003B0038003552
:10023000003200230062006500050505050505057F
:100240000502020202020202020707040404040477
:100250000404040707030303030303030307010163
:100260000101010101010606060606060606010255
:10027000040810204080010204081020408008106B
:10028000010204081020408001020102040810202D
:10029000408004804020100804020101020408107C
:1002A0002040800000000A0B0C000000000000014C
:1002B000040506000000000000000000000000002F
:1002C000000000000000000000000000000000002E
:1002D00000000000000000001D1411241FBECFEF1D
:1002E000D0E1DEBFCDBF11E0A0E0B1E0EAE7FFE280
:1002F00000E00BBF02C007900D92A63BB107D9F7F3
:1003000024E0A6EBB1E001C01D92A13EB207E1F7E7
:1003100011E0CDE6D1E004C02197FE010E946A16EB
:10032000CC36D107C9F70E942E140C94BB170C943D
:1003300000009091D00481E0913208F043C0809198
:10034000AC048111FCCF8091CF0422E02093AC0457
:1003500021E02093AB042FEF2093AA042FEA34E08E
:100360003093A9042093A8041092A7049093A604A4
:100370001092A5049091A504880F892B8093A50461
:100380008091A404813029F51092A4048091A504E1
:10039000809373008091740083FDF8CF85EC809387
:1003A00074008091AC048230E1F38091AA048F3F05
:1003B00091F08091AA04803281F08091AA04803368
:1003C00071F084E01092AE041092D0041092AD044B
:1003D000089585EEE4CF80E0F5CF82E0F3CF83E0AF
:1003E000F1CF90E0FC01ED55FD4F2491FC01E25965
:1003F000FD4F3491875C9D4FFC018491882341F12E
:100400002223C1F021502C30A8F4E22FF0E0E55F68
:10041000FD4F0C946A16410241021A02170229028A
:100420002C022F021A021A02330239023D029FB532
:100430009F779FBDE82FF0E0EE0FFF1FE75DFD4FB8
:10044000A591B4918FB7F894EC913E2B3C938FBF5C
:1004500008959FB59F7DEDCF9FB5977FEACF95B566
:100460009F7D95BDE7CF90918B009F7790938B00F8
:10047000E1CF90918B009F7DF9CF90918B00977F7A
:10048000F5CF93B79F7D93BFD5CFE82FF0E0E65728
:10049000FB4F8085861739F06087618B80918C04D3
:1004A000836080938C040895262F30E0909190040F
:1004B0009078691729F090918C049C6090938C043B
:1004C0003695322F222737952795822B80939004DB
:1004D000809391040895E0916702F091680230974B
:1004E00029F01092AE041092D00409940895CF938D
:1004F000DF93AC01E0916502F09166023097F1F074
:1005000090916402809163029817C0F090E0292FC7
:1005100030E02617370754F4D901AB53BE4F240FF0
:10052000351FE90128812C939F5FF1CF109264025F
:1005300060936302CB01DF91CF910994DF91CF915A
:100540000895CF93DF9390E0FC01E259FD4F249191
:10055000875C9D4FFC0184918823C9F090E0880F4F
:10056000991FFC01E75FFD4FA591B491FC01E75D88
:10057000FD4FC591D49161110DC09FB7F8948C9136
:10058000209582238C938881282328839FBFDF9125
:10059000CF910895623051F49FB7F8943C91822F27
:1005A000809583238C93E8812E2BEFCF8FB7F8941F
:1005B000EC912E2B2C938FBFEACF3FB7F89480910C
:1005C0005B0290915C02A0915D02B0915E0222B745
:1005D00006B600FE05C02F3F19F00196A11DB11D02
:1005E0003FBFBA2FA92F982F8827BC01CD01620FDA
:1005F000711D811D911D42E0660F771F881F991F95
:100600004A95D1F70895883008F5E82FF0E0EE0F0D
:10061000FF1FE95BFE4F718360838150873068F470
:10062000E82FF0E0EA5EFC4F0C946A1627033403CF
:1006300042035003570362036E0380916A008C7F6C
:10064000482B40936A0089B7816089BF08958091E3
:100650006A00837F440F551F440F551F482B40935A
:100660006A0089B78260F1CF80916A008F7C74E064
:10067000440F551F7A95E1F7482B40936A0089B7DC
:100680008460E3CF80916A008F7366E0440F551F4A
:100690006A95E1F7482B40936A0089B78860D5CF07
:1006A0008AB78C7F482B4ABF89B78061CECF8AB783
:1006B000837F440F551F440F551F482B4ABF89B7EE
:1006C0008062C3CF8AB78F7C24E0440F551F2A95E0
:1006D000E1F7482B4ABF89B78064B7CF8AB78F73D9
:1006E00096E0440F551F9A95E1F7482B4ABF89B70A
:1006F0008068ABCFFF920F931F93CF93DF930E943D
:10070000DD022091C3013091C401EB01C21BD30B68
:1007100020916D0230916E02C217D30708F461C0B8
:1007200040917702509178024130510561F0E0919B
:10073000A002F091A10220813091A20223233091E6
:100740006B0223134EC07093C4016093C3010091E8
:100750006F02109170024230510509F419C1433003
:10076000510509F454C14130510561F48091C20131
:10077000813009F449C0D8F1833009F486C084304F
:1007800009F4CFC08091770290917802019749F1E6
:10079000C017D10708F073C18091C0018F5F8093AB
:1007A000C0018B30F0F081E090E09093780280936C
:1007B000770241E050E06AE773E080919E020E9478
:1007C000030310926B021092C20182E590E09093B5
:1007D000700280936F0283E290E090936E028093A8
:1007E0006D02DF91CF911F910F91FF900895C01777
:1007F000D10730F481E08093C201C093C101C2CF20
:1008000084E08093C201BECFC017D107E0F51092FB
:10081000C2018091C0018F5F8093C0012091C1010E
:100820008C2F0C2E000C990B821B910927FD9395A0
:1008300097FF03C0919581959109499794F2109281
:1008400078021092770282E990E090937002809390
:100850006F0282E590E090936E0280936D02109299
:10086000C001F0906C024F2D50E06AE773E0809178
:100870009E020E9403038091A20293E0F91229C014
:1008800080936B027FCF83E0BCCFC017D10718F5F0
:10089000109278021092770282E990E090937002B1
:1008A00080936F0282E590E090936E0280936D02D8
:1008B0001092C001F0906C024F2D50E06AE773E097
:1008C00080919E020E9403038091A20233E0F316FE
:1008D000B9F280E0D5CF90916C02933009F482E0B8
:1008E00080936C0282E090E090937802809377028C
:1008F00082E990E09093700280936F0282E590E02D
:1009000090936E0280936D0210927D028091C001DF
:1009100080937E0210927A0210927C0210927B02E7
:10092000C9CFC017D107A8F41092780210927702AD
:1009300082E990E09093700280936F0282E590E0EC
:1009400090936E0280936D021092C00110927A0211
:1009500088CF82E090E0909378028093770282E9DA
:1009600090E09093700280936F0282E590E0909304
:100970006E0280936D0210927D028091C00180937F
:100980007E0210927A0210927C0210927B0269CF52
:1009900090917A029F5F90937A0280917B02880FF8
:1009A000C017D107E0F080937B02983009F0F0CEB9
:1009B000E0917D02E630A9F410927802109277025D
:1009C00082E990E09093700280936F0282E590E05C
:1009D00090936E0280936D0210927A02D3CE816062
:1009E000E2CF83E090E09093780280937702909139
:1009F0007B0281E08E0F80937D02F0E0E958FD4F8D
:100A0000908780917C02892780937C02BBCEC0179F
:100A1000D10728F5109278021092770210927A028C
:100A200082E990E09093700280936F0282E590E0FB
:100A300090936E0280936D0280917C028111ACCE06
:100A400088E0EDE7F2E0A5E8B2E001900D928A952A
:100A5000E1F781E0809379021092C00193CE8091FA
:100A60007D02863009F4A8CF82E090E0909378026E
:100A70008093770210927A0210927B0283CE1092BA
:100A8000C001AFCE0895DC011496ED91FC9115974D
:100A9000908111968C918095892380830895CF93BE
:100AA000DF93DC01EC91F0E0EE0FFF1FE75EFD4FFE
:100AB000C591D491988111968C91982381E009F485
:100AC00080E0DF91CF910895DC011296ED91FC91C9
:100AD000139711969C911197808161110EC090958A
:100AE000982390831496ED91FC911597908111961F
:100AF0008C918095892380830895982B9083089505
:100B00008091630290916402891B990B089585ED91
:100B1000809374008091740084FDFCCF1092AC042B
:100B2000089520910502260F3327331F2132310506
:100B3000ECF42091AC04FC0190E080E0243069F0FA
:100B400082E00895A09105022191AC014B515E4FC6
:100B5000A40FB52FB11D2C930196861798F38091A1
:100B60000502680F6093050280E0089581E0089512
:100B70000895E091640280916302E81730F4F0E098
:100B8000EB53FE4F808190E008958FEF9FEF089523
:100B900090916402809163022FEF3FEF981748F421
:100BA000E92FF0E0EB53FE4F208130E09F5F909300
:100BB0006402C9010895CF92DF92EF92FF920F93E2
:100BC0001F93CF93DF937C01CB018A012091AD0469
:100BD000222389F0EB016B01C40ED51ECC15DD0577
:100BE00069F06991D701ED91FC910190F081E02DC0
:100BF000C7010995F3CF642F0E949105C801DF91C9
:100C0000CF911F910F91FF90EF90DF90CF900895BB
:100C1000CF93DF931F92CDB7DEB769832091AD04E8
:100C20002223F9F02091D004203258F021E030E066
:100C3000FC013383228390E080E00F90DF91CF911D
:100C400008958091AE04E82FF0E0E155FB4F9981C3
:100C500090838F5F8093AE048093D00481E090E016
:100C6000ECCF61E0CE0101960E949105F7CF1F9372
:100C7000CF93DF93CCE3D2E01881698181ED94E0DA
:100C80000E940806612F81ED94E00E9408066A81A7
:100C900081ED94E0DF91CF911F910C94080690E0D4
:100CA00080E0089580E090E0892B29F08091A602F1
:100CB00083FD0C9400000895009731F160918D043C
:100CC00070918E048617970709F06DC041504A3025
:100CD000D8F4E42FF0E0E159F94F0C946A16790644
:100CE00085069006A006A706AE06B506BC06C30696
:100CF000CB0680919204281739F0209392048091BA
:100D00008C04816080938C0408959091930480EF0B
:100D1000820F292B28239217B9F320939304EFCF46
:100D20003091930440E1249FC0011124832B22952C
:100D3000207F215F8223381739F380939304DFCF1C
:100D400080919404281701F320939404D8CF8091C4
:100D500095042817C9F220939504D1CF8091960469
:100D6000281791F220939604CACF809197042817F0
:100D700059F220939704C3CF80919804281721F249
:100D800020939804BCCF80919904281709F4BCCF14
:100D900020939904B4CF80919A04281709F4B4CF12
:100DA00020939A04ACCF30918F043F7738171906FF
:100DB00009F0AACF4230A1F018F4413031F0089583
:100DC0004330D1F0443049F1089580919B042817B5
:100DD00009F49ACF20939B0480918C04826092CF77
:100DE00090919C0480EF820F292B2823921709F4FD
:100DF0008BCF20939C04F0CF30919C0440E1249F42
:100E0000C0011124832B2295207F215F8223381774
:100E100009F47ACF80939C04DFCF80919D0428173A
:100E200009F472CF20939D04D7CF0F93009721F13F
:100E300060918D0470918E048617970729F5822F93
:100E400090E0309190043078231729F020918C04A1
:100E5000246020938C040D3189F00F3779F00F3026
:100E600081F49C013695322F222737952795809162
:100E70009004822B809390040F91089540939004E6
:100E8000F0CF10929004EDCF30918F043F77381758
:100E9000190691F7822F90E0309191043078231752
:100EA00029F020918C04286020938C049695982F2B
:100EB000882797958795482B40939104DDCF8150E3
:100EC000833208F08AC0E82FF0E0E759F84F0C941D
:100ED0006A168C078E079007920794079607980763
:100EE0009A079C079E07A007A607AA07B007B407A2
:100EF000B807BC07C007C407C807CA07CC07CE0796
:100F0000D007D207D407D607DA07DE07E007E207E3
:100F1000E407E607EA07EC07C29808951D980895CC
:100F20001C9808951B9808951A980895C6980895D6
:100F30009798089596980895959808959498089587
:100F4000809165008F7E8093650008958091650093
:100F5000877FF9CF809162008F7E80936200089531
:100F600080916200877FF9CF809162008B7FF5CFFF
:100F7000809162008D7FF1CF809162008E7FEDCFF6
:100F8000809165008E7FDFCF809165008D7FDBCF04
:100F9000A8980895A9980895AA980895AB980895D7
:100FA000AC980895C4980895C398089580916200FC
:100FB0008F7DD3CF809162008F7BCFCFC79808956C
:100FC000DE980895D9980895DF9808958091650076
:100FD0008B7FB9CFC5980895AD9808951F93CF938F
:100FE000DF93EC018A819B8110E0892BE9F48D81EC
:100FF0009E8110E0892B69F588818E7F8883DF913F
:10100000CF911F910895812F90E0880F991FEA8159
:10101000FB81E80FF91F0190F081E02D80818F772F
:1010200080830E945F071F5F8981181760F3DFCFFD
:10103000812F90E0880F991FED81FE81E80FF91F45
:101040000190F081E02D80818F7780830E945F077F
:101050001F5F8C81181760F3CFCFFC0190819570D2
:10106000953019F4CF010C94EE070895FC0120810E
:1010700020FF03C022FF0C94EE07089581508332B5
:1010800008F08AC0E82FF0E0E85BF74F0C946A168E
:101090006B086D086F087108730875087708790880
:1010A0007B087D087F08850889088F0893089708C2
:1010B0009B089F08A308A708A908AB08AD08AF08BC
:1010C000B108B308B508B908BD08BF08C108C3080E
:1010D000C508C908CB08C29A08951D9A08951C9A9C
:1010E00008951B9A08951A9A0895C69A0895979A92
:1010F0000895969A0895959A0895949A08958091DE
:101100006500806180936500089580916500886026
:10111000F9CF809162008061809362000895809190
:1011200062008860F9CF809162008460F5CF809181
:1011300062008260F1CF809162008160EDCF80918A
:1011400065008160DFCF809165008260DBCFA89A67
:101150000895A99A0895AA9A0895AB9A0895AC9A09
:101160000895C49A0895C39A089580916200806298
:10117000D3CF809162008064CFCFC79A0895DE9A62
:101180000895D99A0895DF9A089580916500846042
:10119000B9CFC59A0895AD9A089590918C0488238B
:1011A00061F0906190938C0481E00E943E088091F0
:1011B0008A00887F80938A0008959F7E90938C0494
:1011C00081E00E945F071092880010928900809150
:1011D0008A008460EFCFCF93C82F80918F028C1745
:1011E00019F08C2F0E94CD08C0938F02CC23F9F008
:1011F0002FB7F8948091730290917402A0917502B8
:10120000B09176022FBF482F392F2A2F8B2F409372
:1012100090023093910220939202809393028091E6
:101220008F028C1749F08C2FCF910C94CD0840E0A1
:1012300030E020E080E0EBCFCF9108950F931F9333
:10124000CF938C01C0E0F8018181C81720F0CF91C5
:101250001F910F9108958C2F90E0880F991FD8014E
:101260001296ED91FC91E80FF91F0190F081E02DAD
:101270008081982F906890838F770E943E08CF5F7F
:10128000E2CF1F93CF93DF93EC01288120FD15C09F
:1012900022FF13C0322F3160388321FF09C02A8119
:1012A0003B81232B51F0DF91CF911F910C941E09AC
:1012B0002D813E8110E0232BB9F4DF91CF911F9156
:1012C0000895812F90E0880F991FED81FE81E80F2E
:1012D000F91F0190F081E02D8081982F9068908314
:1012E0008F770E943E081F5F8C81181750F3E5CF5F
:1012F000CF93DF93EC018881982F9270691789F062
:10130000662369F082608883888180FF0AC0CE01ED
:101310000E942D08CE01DF91CF910C9441098D7F61
:10132000F2CFDF91CF9108951F93CF93DF93EC011C
:101330002881322F357099F4322F3160388321FFA4
:1013400009C02A813B81232B51F0DF91CF911F915E
:101350000C941E092D813E8110E0232BB9F4DF91FE
:10136000CF911F910895812F90E0880F991FED81F3
:10137000FE81E80FF91F0190F081E02D8081982F08
:10138000906890838F770E943E081F5F8C811817AA
:1013900050F3E5CFCF93DF93EC018881982F9270C3
:1013A000691789F0662369F082608883888180FFED
:1013B0000AC0CE010E943608CE01DF91CF910C9475
:1013C00094098D7FF2CFDF91CF910895AF9A8FE787
:1013D0009EE30197F1F700C00000AF9808950C94C8
:1013E000E6091F93CF93DF93EC0180918C0484FF77
:1013F0000BC08FE090E00E944416182F80E190E02F
:101400000E944416181306C0CE01DF91CF911F91A0
:101410000C944416FFCF0C94F109CF93DF932091E5
:10142000A3023091A4022F3F320721F0C901DF91BE
:10143000CF9108958091A60287FF2BC086FF0FC031
:1014400089E090E00E940B0AC82F81E090E00E94A2
:101450000B0A9C2F9093A4028093A30215C089E0ED
:1014600090E00E940B0AC82F81E090E00E940B0AD6
:1014700090E4C99F90011124207C31708F73282B38
:101480003093A4022093A3028091A3029091A4021E
:10149000CECF85FF0CC081E190E00E940B0AC82FDF
:1014A00082E190E00E940B0AC05CDD0BD2CF81E0AC
:1014B00090E00E940B0A90E0CDCFCF93863823E0D6
:1014C000920719F138F4813823E09207D9F0CF91CF
:1014D0000C944416873823E09207D1F0883823E033
:1014E0009207A9F786E893E00E944416C82F87E880
:1014F00093E00E94441690E02FEFC29F800D911D53
:101500001124E5CF81E893E0E2CF86E893E0DFCFD6
:1015100087E893E0DCCF0E94EB08EDE8F2E081E0A1
:1015200087831086E6E9F2E088E0DF011D928A9564
:10153000E9F708950F931F93CF93DF93EC01162FD4
:10154000C63883E0D80781F150F4C13883E0D8076A
:10155000F9F0612FCE010E944C16CE011FC0C73892
:1015600083E0D80741F1C83883E0D80791F786E8CF
:1015700093E00E944416082F87E893E00E944416E7
:10158000C82FD0E08FEF089FC00DD11D1124E1CFEF
:1015900081E893E00E944C1681E893E0DF91CF91BF
:1015A0001F910F910C94441686E893E00E944C160C
:1015B00086E893E0F3CF87E893E00E944C1687E833
:1015C00093E0ECCFCF93DF93D0E0C0E0FE01E4578F
:1015D000FF4F6491CE010E944C162196CD3281E0DE
:1015E000D807A1F761E081E893E00E944C16C0E0C3
:1015F000CF5F8C2F0E943E08C332D1F7DF91CF918D
:1016000008950C94E20A1F93CF93DF932091460133
:101610002223C1F02FEF3FEF30932B0220932A02B9
:1016200030932F0220932E02309333022093320204
:10163000309337022093360230933B0220933A02D4
:101640001092460182309105C9F08330910509F46A
:1016500058C020E030E0232B11F00E940000809160
:10166000630290916402891B990B181619060CF0FD
:1016700044C081ED94E00E94C805F1CFE8E2F2E0B9
:10168000D0E0C0E0828193810196E9F4CC0FDD1FA8
:10169000CC0FDD1FC85DDD4F1B821A8281ED94E007
:1016A0000E94C805888381ED94E00E94C805898363
:1016B000E0917102F09172023097C9F4D0937202F6
:1016C000C09371021AC021963496C530D105D1F667
:1016D0008091630290916402891B990B1816190678
:1016E00064F481ED94E00E94C805F2CFFC01828190
:1016F00093810097D9F7D383C283DF91CF911F9154
:10170000089581ED94E00E94C805182F81ED94E0C2
:101710000E94C805D12F90E0C92FC80FD11DD093CA
:101720003D02C0933C0281ED94E00E94C805682F01
:1017300080933E02CE01D7FF21C09F7790933D0258
:1017400080933C028830910561F0843823E0920751
:1017500041F08C3A23E0920721F0843D23E0920788
:1017600041F481E8683039F4DF91CF911F910C94F6
:10177000E20A0E949A0A80933E02BFCF0E945D0A4D
:10178000FACF1F93CF93DF93EC01162F089779F4CC
:10179000662319F10E94E20A80E090E0892BB9F0FB
:1017A000612FCE01DF91CF911F910C94000080E05A
:1017B00090E0892BA9F781E0C11590E1D90708F0E5
:1017C00080E0111105C0DF91CF911F91089581E054
:1017D00027972297C0F780E0F6CF80E090E0892B32
:1017E000F9F681E0F0CF0F931F93CF93DF93EC01D5
:1017F000162F80918C0484FF25C0CF30D10561F471
:101800008FE090E00E944C168FE090E0DF91CF9146
:101810001F910F910C9444168FE090E00E944416A3
:10182000082F80E190E00E94441608130AC0C730D8
:10183000D10531F0C830D10529F4183049F0FFCF77
:10184000FFCFFFCF612FCE010E944C16CE01DECF1D
:101850000E94E20A88E0DF91CF911F910F910895D5
:101860008331910588F48131910530F481309105FF
:1018700019F08930910531F42FEF3FEF3093A40236
:101880002093A3020C94F30B8D319105D9F7677F58
:101890006093A60220918D022F73362F307C232B6C
:1018A00020938D02E9CFBF92CF92DF92EF92FF9209
:1018B0000F931F93CF93DF938B01B42E690182FFA7
:1018C00023C083FF17C061E0C8010E94C10B8823B9
:1018D000D9F16B2DC8010E94300C8B1135C0F60177
:1018E000DF91CF911F910F91FF90EF90DF90CF90FC
:1018F000BF90099460E0C8010E94C10B882321F1C8
:10190000C8010E940B0AE9CF842F8770C1E0D0E0A4
:101910007E0101C0EE0C8A95EAF7D42FD870CB0176
:101920000E940B0AC82FB4FE1CC061E0C8010E94CF
:10193000C10B882349F0DD2389F0CE296C2FC80123
:101940000E94300C8C1759F2DF91CF911F910F91AB
:10195000FF90EF90DF90CF90BF900895E094CE215C
:10196000EDCF60E0C8010E94C10B882369F3CE214E
:10197000DD2319F0C111B3CFE7CFCC2309F4AFCFEA
:10198000E3CFAF92BF92DF92EF92FF920F931F933C
:10199000CF93DF937C01162FC42FD22ED42FD07E6D
:1019A00080918D0287FF2CC0D03EC1F5A0908E02A1
:1019B000AA20A1F1B12CC5010E940B0AD82FC501A4
:1019C00001960E940B0A982F8D2FE816F90631F523
:1019D0006C2F70E0762F6627662773706D296F5F16
:1019E0007F4F22E536E0402F8C2FDF91CF911F9162
:1019F0000F91FF90EF90DF90BF90AF900C94530C3D
:101A000080FD33C0D03609F464C090F4D03209F4BC
:101A100049C0D03409F45DC0DD2381F1DF91CF915D
:101A20001F910F91FF90EF90DF90BF90AF900895BE
:101A3000D03A09F484C090F42C2F2F7141E0D038B3
:101A400069F7612FC701DF91CF911F910F91FF902F
:101A5000EF90DF90BF90AF900C945C06D03C09F4FF
:101A600075C0D03E09F4B4CFD9CF0E940D0A8E15AF
:101A70009F0541F2E114F10429F2D0CF8C2F8E7032
:101A800069F680E090E0892B49F28C2F8170DF911C
:101A9000CF911F910F91FF90EF90DF90BF90AF908B
:101AA0000C940000CF71CF3109F0B8CF4D2D4F7796
:101AB00061F0413061F02D2D221F2227221F0DE100
:101AC000612FC7010E941507A9CF41E0F4CF40E084
:101AD000F2CF2C2F30E08C2F8F71813029F030F035
:101AE000803121F0813109F540E001C041E095E00D
:101AF000359527959A95E1F721700DE1612FC70182
:101B00000E94150780E090E0892B09F487CF4C2FC5
:101B1000612FC701DF91CF911F910F91FF90EF903F
:101B2000DF90BF90AF900C940000C901880F991FFF
:101B30008E71C4FB442740F9482B4250D8CF2C2F3C
:101B40002F7043E0C4FF7DCF42E07BCFCF71CE3119
:101B500031F0CF3109F062CF2D2D45E072CF2D2D20
:101B600044E06FCF4F925F926F927F928F929F92DD
:101B7000AF92BF92CF92DF92EF92FF920F931F939B
:101B8000CF93DF93C0916902D0916A028091520293
:101B9000811116C02FB7F89480917302909174024E
:101BA000A0917502B09176022FBF80934E02909360
:101BB0004F02A0935002B093510281E080935202F1
:101BC00080914602811111C00E94DD0260517109AD
:101BD0008109910960934202709343028093440209
:101BE0009093450281E0809346020E94DD022B0122
:101BF0003C018FB7F894C0907302D0907402E090CB
:101C00007502F09076028FBF80914E02BC2CB81AFC
:101C100080914202909143029201281B390BC90125
:101C200020914102211169C0FE0130E020E0458190
:101C30005681C417D50709F056C045E0429F800180
:101C4000439F100D11240E5F1F4F0C0F1D1F10938B
:101C5000400200933F020115110509F458C0F80134
:101C6000148213828031910508F492C1853F91401E
:101C700008F0B4C18D8D9E8D0E944F05F8018083C0
:101C800081E080934102409242025092430260926E
:101C9000440270924502F6E0FB1508F47DC18D8D7B
:101CA0009E8D0E944F05A0903F02B09040029091FF
:101CB0004102E92FE695E695E695292F277041E048
:101CC00050E060E070E004C0440F551F661F771FAE
:101CD0002A95D2F7EA0DFB2DF11D811129C04095FF
:101CE0008081482327C02F5F3F4F3596253031052F
:101CF00009F09DCF10E000E0AACF26E02B1508F4F4
:101D00004BC18031910518F0853F914040F2DF9141
:101D1000CF911F910F91FF90EF90DF90CF90BF90E8
:101D2000AF909F908F907F906F905F904F900895AD
:101D30008081482B408381E0890F8093410240924B
:101D40004202509243026092440270924502982FE0
:101D50009770E9F68031E9F4F5018081873780F4E6
:101D6000EB8DFC8D309721F4BC8EAB8E07C0FC014F
:101D7000838194810097D9F7B482A38210924102A3
:101D8000C0924E02D0924F02E0925002F092510265
:101D9000BECF8831A9F7F50111811F778DEF782E1D
:101DA000710EF7E2F71580F088818130A1F4812E61
:101DB000912C1D3220F51B3228F4112351F121E022
:101DC000271508F18DE026C085ED810F883250F48B
:101DD0008881823061F3E0913F02F0914002D48328
:101DE000C383CCCF8DEA810F883220F48881833081
:101DF00091F7DDCF8EEF810F8230C8F6ECCF8DEA00
:101E0000810F8230F8F2C4018F579C4F0E945D0A07
:101E100001C08881F501028190819B3739F19F379C
:101E200009F46CC09737B9F60813D5CF61E08D8DF2
:101E30009E8D0E9464058D8D9E8D0E9443058FE6C8
:101E400097E10197F1F700C00000AD8DBE8D1496AB
:101E5000ED91FC911597808111969C91892B80833F
:101E600060E08D8D9E8D0E946405B5CF202F287077
:101E7000302F377004FF35C01D3278F51B3208F063
:101E8000AACF91E0971508F0A6CF41E050E060E0BE
:101E900070E004C0440F551F661F771F3A95D2F7B4
:101EA000182F142B211103C0142F10951823612F04
:101EB000C4018F579C4F0E949A0A18138CCF61E07F
:101EC0008D8D9E8D0E9464058D8D9E8D0E94430593
:101ED000EFE6F7E13197F1F7B6CF13551230A8F6D8
:101EE0007ACF90E002C0959587953A95E2F7817098
:101EF00099272817190609F06ECF98CF1B32D9F110
:101F000090F51330C1F1143009F465CF602FC4018E
:101F10008F579C4F0E949A0A08131FC061E08D8D55
:101F20009E8D0E9464058D8D9E8D0E9443058FE6D7
:101F300097E10197F1F700C00000AD8DBE8D1496BA
:101F4000ED91FC911597808111969C91892B80834E
:101F500060E08D8D9E8D0E94640511113CCF043090
:101F600078F4088338CF133531F0143509F433CFC2
:101F70001C3261F630CF083081F70E94E20A9FCF11
:101F800061E081E893E00E949A0A81E0888323CF90
:101F9000F6E0FB1508F0BBCE99E09B1508F0B7CE34
:101FA000C0924E02D0924F02E0925002F092510243
:101FB00000913F02109140028D8D9E8D0E944F0531
:101FC000F801808381E08093410240924202509266
:101FD0004302609244027092450299CE26E02B158E
:101FE000D8F295CE9F92AF92BF92CF92DF92EF92AE
:101FF000FF920F931F93CF93DF937C016B01942E7D
:1020000081E0F701481328C0A280B380E701219640
:10201000A114B10431F562E070E081E090E00E942B
:1020200073168C01009731F0FC01D182C082888147
:102030008F5F8883F1E09F1242C0F7011383028310
:10204000DF91CF911F910F91FF90EF90DF90CF9094
:10205000BF90AF909F900895A580B680E701249629
:10206000D7CF88818F5F8883C82FD0E062E070E08F
:10207000CE010E9473168C0120E0AE01415051093F
:10208000822F90E08417950764F0C150D048CC0FA0
:10209000DD1FC00FD11FD982C882C5010E942B1736
:1020A000C9CF880F991FF501E80FF91F6081718171
:1020B000800F911FFC01718360832F5FE1CFF701D7
:1020C00016830583BDCF1F920F920FB60F92112476
:1020D0002F933F938F939F93AF93BF9380917302FE
:1020E00090917402A0917502B091760230915A02DB
:1020F00023E0230F2D3768F126E8230F0296A11D58
:10210000B11D20935A028093730290937402A0939E
:102110007502B093760280915B0290915C02A0916F
:102120005D02B0915E020196A11DB11D80935B021C
:1021300090935C02A0935D02B0935E02BF91AF9159
:102140009F918F913F912F910F900FBE0F901F90F5
:1021500018950196A11DB11DD4CF1F920F920FB6F5
:102160000F9211240BB60F922F933F934F935F93CF
:102170006F937F938F939F93AF93BF93EF93FF934F
:10218000E0915501F09156010995FF91EF91BF91B2
:10219000AF919F918F917F916F915F914F913F91FF
:1021A0002F910F900BBE0F900FBE0F901F901895A0
:1021B0001F920F920FB60F9211240BB60F922F930E
:1021C0003F934F935F936F937F938F939F93AF93BF
:1021D000BF93EF93FF93E0915301F0915401099560
:1021E000FF91EF91BF91AF919F918F917F916F91EF
:1021F0005F914F913F912F910F900BBE0F900FBEAB
:102200000F901F9018951F920F920FB60F921124E6
:102210000BB60F922F933F934F935F936F937F93E0
:102220008F939F93AF93BF93EF93FF93E0915101EF
:10223000F09152010995FF91EF91BF91AF919F915C
:102240008F917F916F915F914F913F912F910F905F
:102250000BBE0F900FBE0F901F9018951F920F92FC
:102260000FB60F9211240BB60F922F933F934F93FB
:102270005F936F937F938F939F93AF93BF93EF93EE
:10228000FF93E0914F01F09150010995FF91EF917B
:10229000BF91AF919F918F917F916F915F914F917E
:1022A0003F912F910F900BBE0F900FBE0F901F907C
:1022B00018951F920F920FB60F9211240BB60F9222
:1022C0002F933F934F935F936F937F938F939F933E
:1022D000AF93BF93EF93FF93E0914D01F0914E01C7
:1022E0000995FF91EF91BF91AF919F918F917F9150
:1022F0006F915F914F913F912F910F900BBE0F9077
:102300000FBE0F901F9018951F920F920FB60F924D
:1023100011240BB60F922F933F934F935F936F93BC
:102320007F938F939F93AF93BF93EF93FF93E0912E
:102330004B01F0914C010995FF91EF91BF91AF9145
:102340009F918F917F916F915F914F913F912F91CD
:102350000F900BBE0F900FBE0F901F9018951F92FD
:102360000F920FB60F9211240BB60F922F933F933B
:102370004F935F936F937F938F939F93AF93BF938D
:10238000EF93FF93E0914901F0914A010995FF9184
:10239000EF91BF91AF919F918F917F916F915F91DD
:1023A0004F913F912F910F900BBE0F900FBE0F904A
:1023B0001F9018951F920F920FB60F9211240BB613
:1023C0000F922F933F934F935F936F937F938F93CE
:1023D0009F93AF93BF93EF93FF93E0914701F091E9
:1023E00048010995FF91EF91BF91AF919F918F9116
:1023F0007F916F915F914F913F912F910F900BBE05
:102400000F900FBE0F901F9018951F920F920FB64E
:102410000F9211240BB60F922F933F934F935F931C
:102420006F937F938F939F93AF93BF93EF93FF939C
:1024300080917100887F803609F44DC008F040C05B
:10244000883209F4A9C028F5803109F49DC0C8F488
:10245000882309F407C1883009F496C0FF91EF91F1
:10246000BF91AF919F918F917F916F915F914F91AC
:102470003F912F910F900BBE0F900FBE0F901F90AA
:102480001895883109F488C0803241F78093AA04F6
:1024900014C0803409F4A5C040F48033B9F3883304
:1024A000E9F68093AA0485ECBCC0803509F489C0A4
:1024B000883509F49EC0883489F60E948705CECFFE
:1024C000883909F494C038F5883729F050F48836F3
:1024D00011F0803719F683E08093AC041092270244
:1024E00057C0883809F483C0803919F0803809F062
:1024F000B5CF80912702803208F079C0E0912702A1
:1025000081E08E0F8093270280917300F0E0E95FF5
:10251000FD4F80833DC0803B39F0E0F4803A09F400
:1025200085C0883A09F09ACF84E08093AC04109279
:10253000060210920502E0916102F0916202099593
:102540008091050281110FC081E0809305021092F5
:10255000E50109C0803C09F4A6CF883C09F4A3CF6B
:10256000883B09F07BCFE091060281E08E0F8093DB
:102570000602F0E0EB51FE4F808180937300909152
:1025800006028091050231C08091A50480937300FA
:1025900085EC8093740062CF9091A7048091A6048B
:1025A0009817B8F58091A8049091A904E091A70428
:1025B00021E02E0F2093A704E80FF92FF11D808151
:1025C000E5CF2091A8043091A904E091A70481E00F
:1025D0008E0F8093A70480917300E20FF32FF11DFB
:1025E00080839091A7048091A604981788F285E8CB
:1025F000D0CF2091A8043091A904E091A70481E0F4
:102600008E0F8093A70480917300E20FF32FF11DCA
:1026100080838091AB04811150CF81E08093A4042A
:1026200084EA809374001092AC0418CF85EC8093F8
:1026300074001092AC0480912702803230F4E09153
:102640002702F0E0E95FFD4F10826091270270E001
:10265000E0915F02F091600287E092E009951092AC
:102660002702FCCE1092AA0428CF1F920F920FB619
:102670000F9211240BB60F92EF92FF920F931F93BC
:102680002F933F934F935F936F937F938F939F937A
:10269000AF93BF93CF93DF93EF93FF930FB6F8946D
:1026A000A89581B5886181BD11BC0FBE789485B7AE
:1026B0008F7D85BF1092BF01C1E0D1E0D093AD0402
:1026C000C093CF041092AE041092D0040E949901DE
:1026D000811105C08091BF018F5F8093BF01CF5FE3
:1026E000CF3761F78091BD019091BE01009731F025
:1026F0000E942B171092BE011092BD01D091BF0114
:10270000DD2371F161E070E08D2F90E00E9473167F
:102710007C019093BE018093BD0110E0C1E001E017
:102720000093AD04C093CF041092AE041092D00475
:102730000E949901811105C0F701E10FF11DC083CD
:102740001F5FCF5FCF3761F7D23050F080918A00A2
:10275000887F80938A0080917D008B7F80937D00AD
:10276000109288001092890085B7806285BFFF9122
:10277000EF91DF91CF91BF91AF919F918F917F9119
:102780006F915F914F913F912F911F910F91FF900A
:10279000EF900F900BBE0F900FBE0F901F901895EB
:1027A0001F920F920FB60F9211240BB60F922F9318
:1027B0003F934F935F936F937F938F939F93AF93C9
:1027C000BF93CF93DF93EF93FF937894CDE5D1E060
:1027D000E991F991808187FF08C08F772091BC0132
:1027E0009181921720F10E943E0881E0C33AD807F8
:1027F00079F786E984BD8091BC018F5F8032D1F08A
:102800008093BC01FF91EF91DF91CF91BF91AF9188
:102810009F918F917F916F915F914F913F912F91F8
:102820000F900BBE0F900FBE0F901F9018950E9437
:102830005F07DBCF1092BC01E5CFE1EDF4E013823E
:10284000128288EE93E0A0E0B0E084839583A683B3
:10285000B78387EA91E0918380830895789483B762
:102860008C6483BF87B7816087BFC2E0CEBD8EB561
:1028700081608EBD8FB581608FBD85B5846085BD5B
:1028800085B5806485BD80918A00836080938A00CD
:1028900080918B00816080938B0087E886B91AB89D
:1028A0000FB6F894A89581B5886181BD11BC0FBEA3
:1028B0001ABA17BA14BA11BA12B81092610010926B
:1028C000640061E081E00E94A10281E00E94F101C8
:1028D00010926402109263021092AE041092D0041F
:1028E0001092AC0481E08093AB041092A40483E1C5
:1028F0000E94F10182E10E94F101809171008C7FC0
:102900008093710088E48093700085E48093740064
:102910008BE692E0909362028093610287E792E0F7
:102920009093600280935F02C09372008CE080936A
:10293000700083E09BE0909366028093650287E3DA
:1029400096E09093680280936702BA9A159A149A57
:10295000139A129ABE9A8F9A8E9A8D9A8C9A809117
:10296000640080618093640080916400886080933B
:1029700064008091610080618093610080916100BA
:102980008860809361008091610084608093610021
:10299000809161008260809361008091610081601C
:1029A00080936100809164008160809364008091D5
:1029B0006400826080936400A09AA19AA29AA39A6C
:1029C000A49ABC9ABB9A8091610080628093610056
:1029D00080916100806480936100BF9AD69AD19AF9
:1029E000D79A80916400846080936400BD9AA59A10
:1029F000A79AD0E0C0E0FE01E457FF4F6491CE01FA
:102A00000E944C162196CD3221E0D207A1F761E059
:102A100081E893E00E944C16C0E0CF5F8C2F0E94AB
:102A20003E08C332D1F78DE190E00E9444168093B6
:102A30008A048CE190E00E94441680938B048DE11F
:102A400090E00E94441685FF03C181E190E00E945E
:102A500044168F73C82FD0E0DC2FCC2782E190E0A2
:102A60000E944416C82BD0938E04C0938D0483E13A
:102A700090E00E94441680938F0480E88093900435
:102A80008093910489EBA82E81E0B82E9DE5E92E74
:102A900091E0F92E670127E0922EF501059114913E
:102AA000C8010E944416C82FC80101960E9444160E
:102AB000D82F0E5F1F4FC8010E944416803228F0A5
:102AC0006FE1C8010E945D168FE1D6010D911D9145
:102AD0006D01F8018183D03809F4C9C0D13809F4F7
:102AE000CEC0D1110FC0C99DE0011124C955DD4FE1
:102AF00041E0B801CE010E94F20F40E0B801CE01E2
:102B00000E94F20FF2E0AF0EB11C23EAC21621E0E0
:102B1000D20609F0C2CF85E190E00E94441680FF02
:102B200005C09091AE0294609093AE0281FF05C003
:102B30009091B50294609093B50282FF05C0909188
:102B4000BC0294609093BC0283FF05C09091C302C5
:102B500094609093C30284FF05C09091CA02946070
:102B60009093CA0285FF05C09091D1029460909322
:102B7000D10286FF05C09091D80294609093D8024C
:102B800087FF05C08091DF0284608093DF0286E1C9
:102B900090E00E94441680FF05C09091A7029460C7
:102BA0009093A70282FF05C09091E60294609093F3
:102BB000E60283FF05C09091ED0294609093ED02D0
:102BC00084FF05C09091F40294609093F40285FF15
:102BD00005C09091FB0294609093FB0286FF05C0B4
:102BE0009091020394609093020387FF05C0809147
:102BF0000903846080930903D701ED91FD917D0164
:102C000080818F7780830E945F07B3EAEB16B1E083
:102C1000FB0691F70AE814E0C7EAD2E0CE010E9471
:102C20009409CE010E944109EFEFF9E628E1E15055
:102C3000F0402040E1F700C00000CE010E943608BD
:102C4000CE010E942D0827960C171D0739F7E4CFF7
:102C500081E090E00E944416181634F063E081E0B1
:102C600090E00E944C1683E0C82FD0E0FCCEC99DB6
:102C7000C001112440E0B80189559D4F41CFC99D45
:102C8000C001112441E0F7CFE199FECF9FBB8EBB7D
:102C9000E09A99278DB30895262FE199FECF9FBB27
:102CA0008EBBE09A01970DB2021631F02DBB0FB624
:102CB000F894E29AE19A0FBE0895262FE199FECF8B
:102CC0009FBB8EBB2DBB0FB6F894E29AE19A0FBE64
:102CD00001960895EE0FFF1F0024001C0BBE079005
:102CE000F691E02D09940F931F93CF93DF93869F66
:102CF0008001879F100D969F100D1124C8010E941E
:102D00008F16EC01009729F0A80170E060E00E94A6
:102D1000B417CE01DF91CF911F910F9108950F93BA
:102D20001F93CF93DF938230910510F482E090E0FF
:102D3000E091DF04F091E00430E020E0B0E0A0E0BA
:102D4000309799F42115310509F44AC0281B390B35
:102D500024303105D8F58A819B816115710589F18F
:102D6000FB0193838283FE0111C040815181028166
:102D7000138148175907E0F04817590799F410973D
:102D800061F012960C93129713961C933296CF0112
:102D9000DF91CF911F910F9108950093DF0410935D
:102DA000E004F4CF2115310551F04217530738F0F4
:102DB000A901DB019A01BD01DF01F801C1CFEF01DB
:102DC000F9CF9093E0048093DF04CDCFFE01E20FB2
:102DD000F31F819391932250310939832883D7CFF0
:102DE0002091DD043091DE04232B41F42091590120
:102DF00030915A013093DE042093DD042091570175
:102E0000309158012115310541F42DB73EB740915D
:102E10005B0150915C01241B350BE091DD04F091C6
:102E2000DE04E217F307A0F42E1B3F0B2817390727
:102E300078F0AC014E5F5F4F2417350748F04E0F16
:102E40005F1F5093DE044093DD04819391939FCFE5
:102E5000F0E0E0E09CCFCF93DF930097E9F0FC0136
:102E6000329713821282A091DF04B091E004ED0149
:102E700030E020E01097A1F420813181820F931F70
:102E80002091DD043091DE042817390709F061C074
:102E9000F093DE04E093DD04DF91CF910895EA0121
:102EA000CE17DF07E8F54A815B819E014115510588
:102EB000B1F7E901FB83EA8349915991C40FD51F0A
:102EC000EC17FD0761F4808191810296840F951FB4
:102ED000E90199838883828193819B838A83F0E0CF
:102EE000E0E012968D919C9113970097B9F52D9182
:102EF0003C911197CD010296820F931F2091DD0422
:102F00003091DE042817390739F6309751F51092C1
:102F1000E0041092DF04B093DE04A093DD04BCCF84
:102F2000D383C28340815181840F951FC817D9076D
:102F300061F44E5F5F4F88819981480F591F51831B
:102F400040838A819B81938382832115310509F017
:102F5000B0CFF093E004E093DF049ECFFD01DC01ED
:102F6000C0CF13821282D7CFDC0101C06D934150D4
:0A2F70005040E0F70895F894FFCFF9
:102F7A0023FF22FF21FF20FF1FFF1EFF1DFF1CFF53
:102F8A001BFF1AFF19FF18FF17FF16FF15FF14FF83
:102F9A0013FF12FF11FF10FF0FFF0EFF0DFF0CFFB3
:102FAA000BFF0AFF09FF08FF07FF06FF05FF04FFE3
:102FBA0003FF02FF01FF01420500000000000000BC
:102FCA00000000000000000000E10480004401420B
:102FDA000140013E013C013A013801360134013217
:102FEA000130012E012C012A012801260124012287
:102FFA000120011E011C011A0118011601140112F7
:10300A000110010E010C010A010801060104010266
:10301A00010001000000000806DB054F06B8058024
:06302A0005C805B9050010
:00000001FF
