:100000000C946D010C94DA110C94AF110C948411C2
:100010000C9459110C942E110C9403110C94D810BB
:100020000C94AD100C9497010C94D0130C94970180
:100030000C9497010C9497010C9497010C949701E0
:100040000C9463100C9497010C9497010C949701F5
:100050000C9497010C9497010C9497010C949701C0
:100060000C9497010C9497010C9497010C949701B0
:100070000C9497010C9435130C9497010C949701F0
:100080000C9497010C9405120C9497014003000006
:10009000000000120D0000000000000101C08000FF
:1000A000000000000000000000060000000000004A
:1000B0000000000000000000000000000000000040
:1000C000000000000000FF1F001E000000000000F4
:1000D0000000000000000000000000000000000020
:1000E0000000000000000000000000000000000010
:1000F00000000000000000000000000002001400EA
:10010000030014000400140005001400060014008D
:100110000700140008001400090014000A0014006D
:100120000B0014000C0014000D0014000E00100051
:100130000F0010001000100011001000120010003D
:10014000130010001400100015001000160010001D
:100150001700100018001000190010001A001400F9
:100160001B0014001C001400010014000100140006
:10017000010014000100140001001400010014002B
:1001800000801F0000811F00FF000000FF00000032
:10019000FF000000FF000000FF0000000000000062
:1001A000000000000000000000000000000000004F
:1001B0000000000000000000007000740078007C67
:1001C000008000840088008C009000940098009CBF
:1001D00000A000A400A800AC00B000B400B800BCAF
:1001E00000C000C400C800CC00D000D400D800DC9F
:1001F00000E000E400E800EC00F000F400F800FC8F
:10020000000001040108010C0100003A003700342D
:100210000031002200610064000000390036003324
:1002200000300021002000630000003B0038003552
:10023000003200230062006500050505050505057F
:100240000502020202020202020707040404040477
:100250000404040707030303030303030307010163
:100260000101010101010606060606060606010255
:10027000040810204080010204081020408008106B
:10028000010204081020408001020102040810202D
:10029000408004804020100804020101020408107C
:1002A0002040800000000A0B0C000000000000014C
:1002B000040506000000000000000000000000002F
:1002C000000000000000000000000000000000002E
:1002D00000000000000000001D1411241FBECFEF1D
:1002E000D0E1DEBFCDBF11E0A0E0B1E0EAEFF1E484
:1002F00000E00BBF02C007900D92A63BB107D9F7F3
:1003000024E0A6EBB1E001C01D92AB3EB207E1F7DD
:1003100011E0CDE6D1E004C02197FE010E94891FC3
:10032000CC36D107C9F70E942E140C94FB200C94F4
:1003300000009091D20481E0913208F043C0809196
:10034000AE048111FCCF8091D10422E02093AE0451
:1003500021E02093AD042FEF2093AC0421EB34E097
:100360003093AB042093AA041092A9049093A8049C
:100370001092A7049091A704880F892B8093A7045B
:100380008091A604813029F51092A6048091A704DB
:10039000809373008091740083FDF8CF85EC809387
:1003A00074008091AE048230E1F38091AC048F3F01
:1003B00091F08091AC04803281F08091AC04803364
:1003C00071F084E01092B0041092D2041092AF0445
:1003D000089585EEE4CF80E0F5CF82E0F3CF83E0AF
:1003E000F1CF90E0FC01ED55FD4F2491FC01E25965
:1003F000FD4F3491875C9D4FFC018491882341F12E
:100400002223C1F021502C30A8F4E22FF0E0E55F68
:10041000FD4F0C94891F410241021A021702290262
:100420002C022F021A021A02330239023D029FB532
:100430009F779FBDE82FF0E0EE0FFF1FE75DFD4FB8
:10044000A591B4918FB7F894EC913E2B3C938FBF5C
:1004500008959FB59F7DEDCF9FB5977FEACF95B566
:100460009F7D95BDE7CF90918B009F7790938B00F8
:10047000E1CF90918B009F7DF9CF90918B00977F7A
:10048000F5CF93B79F7D93BFD5CFE82FF0E0E65728
:10049000FB4F8085861739F06087618B80918C04D3
:1004A000836080938C040895262F30E0909190040F
:1004B0009078691729F090918C049C6090938C043B
:1004C0003695322F222737952795822B80939004DB
:1004D000809391040895E0916702F091680230974B
:1004E00029F01092B0041092D20409940895CF9389
:1004F000DF93AC01E0916502F09166023097F1F074
:1005000090916402809163029817C0F090E0292FC7
:1005100030E02617370754F4D901AB53BE4F240FF0
:10052000351FE90128812C939F5FF1CF109264025F
:1005300060936302CB01DF91CF910994DF91CF915A
:100540000895CF93DF9390E0FC01E259FD4F249191
:10055000875C9D4FFC0184918823C9F090E0880F4F
:10056000991FFC01E75FFD4FA591B491FC01E75D88
:10057000FD4FC591D49161110DC09FB7F8948C9136
:10058000209582238C938881282328839FBFDF9125
:10059000CF910895623051F49FB7F8943C91822F27
:1005A000809583238C93E8812E2BEFCF8FB7F8941F
:1005B000EC912E2B2C938FBFEACF3FB7F89480910C
:1005C0005B0290915C02A0915D02B0915E0222B745
:1005D00006B600FE05C02F3F19F00196A11DB11D02
:1005E0003FBFBA2FA92F982F8827BC01CD01620FDA
:1005F000711D811D911D42E0660F771F881F991F95
:100600004A95D1F70895883008F5E82FF0E0EE0F0D
:10061000FF1FE95BFE4F718360838150873068F470
:10062000E82FF0E0EA5EFC4F0C94891F27033403A7
:1006300042035003570362036E0380916A008C7F6C
:10064000482B40936A0089B7816089BF08958091E3
:100650006A00837F440F551F440F551F482B40935A
:100660006A0089B78260F1CF80916A008F7C74E064
:10067000440F551F7A95E1F7482B40936A0089B7DC
:100680008460E3CF80916A008F7366E0440F551F4A
:100690006A95E1F7482B40936A0089B78860D5CF07
:1006A0008AB78C7F482B4ABF89B78061CECF8AB783
:1006B000837F440F551F440F551F482B4ABF89B7EE
:1006C0008062C3CF8AB78F7C24E0440F551F2A95E0
:1006D000E1F7482B4ABF89B78064B7CF8AB78F73D9
:1006E00096E0440F551F9A95E1F7482B4ABF89B70A
:1006F0008068ABCFFF920F931F93CF93DF930E943D
:10070000DD022091C3013091C401EB01C21BD30B68
:1007100020916D0230916E02C217D30708F461C0B8
:1007200040917702509178024130510561F0E0919B
:10073000A002F091A10220813091A20223233091E6
:100740006B0223134EC07093C4016093C3010091E8
:100750006F02109170024230510509F419C1433003
:10076000510509F454C14130510561F48091C20131
:10077000813009F449C0D8F1833009F486C084304F
:1007800009F4CFC08091770290917802019749F1E6
:10079000C017D10708F073C18091C0018F5F8093AB
:1007A000C0018B30F0F081E090E09093780280936C
:1007B000770241E050E06AE773E080919E020E9478
:1007C000030310926B021092C20182E590E09093B5
:1007D000700280936F0283E290E090936E028093A8
:1007E0006D02DF91CF911F910F91FF900895C01777
:1007F000D10730F481E08093C201C093C101C2CF20
:1008000084E08093C201BECFC017D107E0F51092FB
:10081000C2018091C0018F5F8093C0012091C1010E
:100820008C2F0C2E000C990B821B910927FD9395A0
:1008300097FF03C0919581959109499794F2109281
:1008400078021092770282E990E090937002809390
:100850006F0282E590E090936E0280936D02109299
:10086000C001F0906C024F2D50E06AE773E0809178
:100870009E020E9403038091A20293E0F91229C014
:1008800080936B027FCF83E0BCCFC017D10718F5F0
:10089000109278021092770282E990E090937002B1
:1008A00080936F0282E590E090936E0280936D02D8
:1008B0001092C001F0906C024F2D50E06AE773E097
:1008C00080919E020E9403038091A20233E0F316FE
:1008D000B9F280E0D5CF90916C02933009F482E0B8
:1008E00080936C0282E090E090937802809377028C
:1008F00082E990E09093700280936F0282E590E02D
:1009000090936E0280936D0210927D028091C001DF
:1009100080937E0210927A0210927C0210927B02E7
:10092000C9CFC017D107A8F41092780210927702AD
:1009300082E990E09093700280936F0282E590E0EC
:1009400090936E0280936D021092C00110927A0211
:1009500088CF82E090E0909378028093770282E9DA
:1009600090E09093700280936F0282E590E0909304
:100970006E0280936D0210927D028091C00180937F
:100980007E0210927A0210927C0210927B0269CF52
:1009900090917A029F5F90937A0280917B02880FF8
:1009A000C017D107E0F080937B02983009F0F0CEB9
:1009B000E0917D02E630A9F410927802109277025D
:1009C00082E990E09093700280936F0282E590E05C
:1009D00090936E0280936D0210927A02D3CE816062
:1009E000E2CF83E090E09093780280937702909139
:1009F0007B0281E08E0F80937D02F0E0E958FD4F8D
:100A0000908780917C02892780937C02BBCEC0179F
:100A1000D10728F5109278021092770210927A028C
:100A200082E990E09093700280936F0282E590E0FB
:100A300090936E0280936D0280917C028111ACCE06
:100A400088E0EDE7F2E0A5E8B2E001900D928A952A
:100A5000E1F781E0809379021092C00193CE8091FA
:100A60007D02863009F4A8CF82E090E0909378026E
:100A70008093770210927A0210927B0283CE1092BA
:100A8000C001AFCE0895DC011496ED91FC9115974D
:100A9000908111968C918095892380830895CF93BE
:100AA000DF93DC01EC91F0E0EE0FFF1FE75EFD4FFE
:100AB000C591D491988111968C91982381E009F485
:100AC00080E0DF91CF910895DC011296ED91FC91C9
:100AD000139711969C911197808161110EC090958A
:100AE000982390831496ED91FC911597908111961F
:100AF0008C918095892380830895982B9083089505
:100B00008091630290916402891B990B089585ED91
:100B1000809374008091740084FDFCCF1092AE0429
:100B2000089520910502260F3327331F2132310506
:100B3000ECF42091AE04FC0190E080E0243069F0F8
:100B400082E00895A09105022191AC014B515E4FC6
:100B5000A40FB52FB11D2C930196861798F38091A1
:100B60000502680F6093050280E0089581E0089512
:100B70000895E091640280916302E81730F4F0E098
:100B8000EB53FE4F808190E008958FEF9FEF089523
:100B900090916402809163022FEF3FEF981748F421
:100BA000E92FF0E0EB53FE4F208130E09F5F909300
:100BB0006402C9010895CF92DF92EF92FF920F93E2
:100BC0001F93CF93DF937C01CB018A012091AF0467
:100BD000222389F0EB016B01C40ED51ECC15DD0577
:100BE00069F06991D701ED91FC910190F081E02DC0
:100BF000C7010995F3CF642F0E949105C801DF91C9
:100C0000CF911F910F91FF90EF90DF90CF900895BB
:100C1000CF93DF931F92CDB7DEB769832091AF04E6
:100C20002223F9F02091D204203258F021E030E064
:100C3000FC013383228390E080E00F90DF91CF911D
:100C400008958091B004E82FF0E0EF54FB4F9981B4
:100C500090838F5F8093B0048093D20481E090E012
:100C6000ECCF61E0CE0101960E949105F7CF1F9372
:100C7000CF93DF93CCE3D2E01881698183ED94E0D8
:100C80000E940806612F83ED94E00E9408066A81A5
:100C900083ED94E0DF91CF911F910C94080690E0D2
:100CA00080E0089580E090E0892B29F08091A602F1
:100CB00083FD0C9400000895009731F160918D043C
:100CC00070918E048617970709F06DC041504A3025
:100CD000D8F4E42FF0E0E159F94F0C94891F79061C
:100CE00085069006A006A706AE06B506BC06C30696
:100CF000CB0680919204281739F0209392048091BA
:100D00008C04816080938C0408959091930480EF0B
:100D1000820F292B28239217B9F320939304EFCF46
:100D20003091930440E1249FC0011124832B22952C
:100D3000207F215F8223381739F380939304DFCF1C
:100D400080919404281701F320939404D8CF8091C4
:100D500095042817C9F220939504D1CF8091960469
:100D6000281791F220939604CACF809197042817F0
:100D700059F220939704C3CF80919804281721F249
:100D800020939804BCCF80919904281709F4BCCF14
:100D900020939904B4CF80919A04281709F4B4CF12
:100DA00020939A04ACCF30918F043F7738171906FF
:100DB00009F0AACF4230A1F018F4413031F0089583
:100DC0004330D1F0443049F1089580919B042817B5
:100DD00009F49ACF20939B0480918C04826092CF77
:100DE00090919C0480EF820F292B2823921709F4FD
:100DF0008BCF20939C04F0CF30919C0440E1249F42
:100E0000C0011124832B2295207F215F8223381774
:100E100009F47ACF80939C04DFCF80919D0428173A
:100E200009F472CF20939D04D7CF0F93009721F13F
:100E300060918D0470918E048617970729F5822F93
:100E400090E0309190043078231729F020918C04A1
:100E5000246020938C040D3189F00F3779F00F3026
:100E600081F49C013695322F222737952795809162
:100E70009004822B809390040F91089540939004E6
:100E8000F0CF10929004EDCF30918F043F77381758
:100E9000190691F7822F90E0309191043078231752
:100EA00029F020918C04286020938C049695982F2B
:100EB000882797958795482B40939104DDCF8150E3
:100EC000833208F08AC0E82FF0E0E759F84F0C941D
:100ED000891F8C078E07900792079407960798073B
:100EE0009A079C079E07A007A607AA07B007B407A2
:100EF000B807BC07C007C407C807CA07CC07CE0796
:100F0000D007D207D407D607DA07DE07E007E207E3
:100F1000E407E607EA07EC07C29808951D980895CC
:100F20001C9808951B9808951A980895C6980895D6
:100F30009798089596980895959808959498089587
:100F4000809165008F7E8093650008958091650093
:100F5000877FF9CF809162008F7E80936200089531
:100F600080916200877FF9CF809162008B7FF5CFFF
:100F7000809162008D7FF1CF809162008E7FEDCFF6
:100F8000809165008E7FDFCF809165008D7FDBCF04
:100F9000A8980895A9980895AA980895AB980895D7
:100FA000AC980895C4980895C398089580916200FC
:100FB0008F7DD3CF809162008F7BCFCFC79808956C
:100FC000DE980895D9980895DF9808958091650076
:100FD0008B7FB9CFC5980895AD9808951F93CF938F
:100FE000DF93EC018A819B8110E0892BE9F48D81EC
:100FF0009E8110E0892B69F588818E7F8883DF913F
:10100000CF911F910895812F90E0880F991FEA8159
:10101000FB81E80FF91F0190F081E02D80818F772F
:1010200080830E945F071F5F8981181760F3DFCFFD
:10103000812F90E0880F991FED81FE81E80FF91F45
:101040000190F081E02D80818F7780830E945F077F
:101050001F5F8C81181760F3CFCFFC0190819570D2
:10106000953019F4CF010C94EE070895FC0120810E
:1010700020FF03C022FF0C94EE07089581508332B5
:1010800008F08AC0E82FF0E0E85BF74F0C94891F66
:101090006B086D086F087108730875087708790880
:1010A0007B087D087F08850889088F0893089708C2
:1010B0009B089F08A308A708A908AB08AD08AF08BC
:1010C000B108B308B508B908BD08BF08C108C3080E
:1010D000C508C908CB08C29A08951D9A08951C9A9C
:1010E00008951B9A08951A9A0895C69A0895979A92
:1010F0000895969A0895959A0895949A08958091DE
:101100006500806180936500089580916500886026
:10111000F9CF809162008061809362000895809190
:1011200062008860F9CF809162008460F5CF809181
:1011300062008260F1CF809162008160EDCF80918A
:1011400065008160DFCF809165008260DBCFA89A67
:101150000895A99A0895AA9A0895AB9A0895AC9A09
:101160000895C49A0895C39A089580916200806298
:10117000D3CF809162008064CFCFC79A0895DE9A62
:101180000895D99A0895DF9A089580916500846042
:10119000B9CFC59A0895AD9A089590918C0488238B
:1011A00061F0906190938C0481E00E943E088091F0
:1011B0008A00887F80938A0008959F7E90938C0494
:1011C00081E00E945F071092880010928900809150
:1011D0008A008460EFCFCF93C82F80918F028C1745
:1011E00019F08C2F0E94CD08C0938F02CC23F9F008
:1011F0002FB7F8948091730290917402A0917502B8
:10120000B09176022FBF482F392F2A2F8B2F409372
:1012100090023093910220939202809393028091E6
:101220008F028C1749F08C2FCF910C94CD0840E0A1
:1012300030E020E080E0EBCFCF9108950F931F9333
:10124000CF938C01C0E0F8018181C81720F0CF91C5
:101250001F910F9108958C2F90E0880F991FD8014E
:101260001296ED91FC91E80FF91F0190F081E02DAD
:101270008081982F906890838F770E943E08CF5F7F
:10128000E2CF1F93CF93DF93EC01288120FD15C09F
:1012900022FF13C0322F3160388321FF09C02A8119
:1012A0003B81232B51F0DF91CF911F910C941E09AC
:1012B0002D813E8110E0232BB9F4DF91CF911F9156
:1012C0000895812F90E0880F991FED81FE81E80F2E
:1012D000F91F0190F081E02D8081982F9068908314
:1012E0008F770E943E081F5F8C81181750F3E5CF5F
:1012F000CF93DF93EC018881982F9270691789F062
:10130000662369F082608883888180FF0AC0CE01ED
:101310000E942D08CE01DF91CF910C9441098D7F61
:10132000F2CFDF91CF9108951F93CF93DF93EC011C
:101330002881322F357099F4322F3160388321FFA4
:1013400009C02A813B81232B51F0DF91CF911F915E
:101350000C941E092D813E8110E0232BB9F4DF91FE
:10136000CF911F910895812F90E0880F991FED81F3
:10137000FE81E80FF91F0190F081E02D8081982F08
:10138000906890838F770E943E081F5F8C811817AA
:1013900050F3E5CFCF93DF93EC018881982F9270C3
:1013A000691789F0662369F082608883888180FFED
:1013B0000AC0CE010E943608CE01DF91CF910C9475
:1013C00094098D7FF2CFDF91CF910895AF9A8FE787
:1013D0009EE30197F1F700C00000AF9808950C94C8
:1013E000E6091F93CF93DF93EC0180918C0484FF77
:1013F0000BC08FE090E00E944F1F182F80E190E01B
:101400000E944F1F181306C0CE01DF91CF911F918C
:101410000C944F1FFFCF0C94F109CF93DF932091D1
:10142000A3023091A4022F3F320721F0C901DF91BE
:10143000CF9108958091A60287FF2BC086FF0FC031
:1014400089E090E00E940B0AC82F81E090E00E94A2
:101450000B0A9C2F9093A4028093A30215C089E0ED
:1014600090E00E940B0AC82F81E090E00E940B0AD6
:1014700090E4C99F90011124207C31708F73282B38
:101480003093A4022093A3028091A3029091A4021E
:10149000CECF85FF0CC081E190E00E940B0AC82FDF
:1014A00082E190E00E940B0AC05CDD0BD2CF81E0AC
:1014B00090E00E940B0A90E0CDCFCF93863823E0D6
:1014C000920719F138F4813823E09207D9F0CF91CF
:1014D0000C944F1F873823E09207D1F0883823E01F
:1014E0009207A9F786E893E00E944F1FC82F87E86C
:1014F00093E00E944F1F90E02FEFC29F800D911D3F
:101500001124E5CF81E893E0E2CF86E893E0DFCFD6
:1015100087E893E0DCCF0E94EB08EDE8F2E081E0A1
:1015200087831086E6E9F2E088E0DF011D928A9564
:10153000E9F708950F931F93CF93DF93EC01162FD4
:10154000C63883E0D80781F150F4C13883E0D8076A
:10155000F9F0612FCE010E94571FCE011FC0C7387E
:1015600083E0D80741F1C83883E0D80791F786E8CF
:1015700093E00E944F1F082F87E893E00E944F1FBF
:10158000C82FD0E08FEF089FC00DD11D1124E1CFEF
:1015900081E893E00E94571F81E893E0DF91CF91AB
:1015A0001F910F910C944F1F86E893E00E94571FE4
:1015B00086E893E0F3CF87E893E00E94571F87E81F
:1015C00093E0ECCFCF93DF93D0E0C0E0FE01E4578F
:1015D000FF4F6491CE010E94571F2196CD3281E0CA
:1015E000D807A1F761E081E893E00E94571FC0E0AF
:1015F000CF5F8C2F0E943E08C332D1F7DF91CF918D
:1016000008950C94E20A1F93CF93DF932091460133
:101610002223C1F02FEF3FEF30932B0220932A02B9
:1016200030932F0220932E02309333022093320204
:10163000309337022093360230933B0220933A02D4
:101640001092460182309105C9F08330910509F46A
:1016500058C020E030E0232B11F00E940000809160
:10166000630290916402891B990B181619060CF0FD
:1016700044C083ED94E00E94C805F1CFE8E2F2E0B7
:10168000D0E0C0E0828193810196E9F4CC0FDD1FA8
:10169000CC0FDD1FC85DDD4F1B821A8283ED94E005
:1016A0000E94C805888383ED94E00E94C805898361
:1016B000E0917102F09172023097C9F4D0937202F6
:1016C000C09371021AC021963496C530D105D1F667
:1016D0008091630290916402891B990B1816190678
:1016E00064F483ED94E00E94C805F2CFFC0182818E
:1016F00093810097D9F7D383C283DF91CF911F9154
:10170000089583ED94E00E94C805182F83ED94E0BE
:101710000E94C805D12F90E0C92FC80FD11DD093CA
:101720003D02C0933C0283ED94E00E94C805682FFF
:1017300080933E02CE01D7FF21C09F7790933D0258
:1017400080933C028830910561F0843823E0920751
:1017500041F08C3A23E0920721F0843D23E0920788
:1017600041F481E8683039F4DF91CF911F910C94F6
:10177000E20A0E949A0A80933E02BFCF0E945D0A4D
:10178000FACF1F93CF93DF93EC01162F089779F4CC
:10179000662319F10E94E20A80E090E0892BB9F0FB
:1017A000612FCE01DF91CF911F910C94000080E05A
:1017B00090E0892BA9F781E0C11590E1D90708F0E5
:1017C00080E0111105C0DF91CF911F91089581E054
:1017D00027972297C0F780E0F6CF80E090E0892B32
:1017E000F9F681E0F0CF0F931F93CF93DF93EC01D5
:1017F000162F80918C0484FF25C0CF30D10561F471
:101800008FE090E00E94571F8FE090E0DF91CF9132
:101810001F910F910C944F1F8FE090E00E944F1F7B
:10182000082F80E190E00E944F1F08130AC0C730C4
:10183000D10531F0C830D10529F4183049F0FFCF77
:10184000FFCFFFCF612FCE010E94571FCE01DECF09
:101850000E94E20A88E0DF91CF911F910F910895D5
:101860008331910588F48131910530F481309105FF
:1018700019F08930910531F42FEF3FEF3093A40236
:101880002093A3020C94F30B8D319105D9F7677F58
:101890006093A60220918D022F73362F307C232B6C
:1018A00020938D02E9CFBF92CF92DF92EF92FF9209
:1018B0000F931F93CF93DF938B01B42E690182FFA7
:1018C00023C083FF17C061E0C8010E94C10B8823B9
:1018D000D9F16B2DC8010E94300C8B1135C0F60177
:1018E000DF91CF911F910F91FF90EF90DF90CF90FC
:1018F000BF90099460E0C8010E94C10B882321F1C8
:10190000C8010E940B0AE9CF842F8770C1E0D0E0A4
:101910007E0101C0EE0C8A95EAF7D42FD870CB0176
:101920000E940B0AC82FB4FE1CC061E0C8010E94CF
:10193000C10B882349F0DD2389F0CE296C2FC80123
:101940000E94300C8C1759F2DF91CF911F910F91AB
:10195000FF90EF90DF90CF90BF900895E094CE215C
:10196000EDCF60E0C8010E94C10B882369F3CE214E
:10197000DD2319F0C111B3CFE7CFCC2309F4AFCFEA
:10198000E3CFAF92BF92DF92EF92FF920F931F933C
:10199000CF93DF937C01162FC42FD22ED42FD07E6D
:1019A00080918D0287FF2CC0D03EC1F5A0908E02A1
:1019B000AA20A1F1B12CC5010E940B0AD82FC501A4
:1019C00001960E940B0A982F8D2FE816F90631F523
:1019D0006C2F70E0762F6627662773706D296F5F16
:1019E0007F4F22E536E0402F8C2FDF91CF911F9162
:1019F0000F91FF90EF90DF90BF90AF900C94530C3D
:101A000080FD33C0D03609F464C090F4D03209F4BC
:101A100049C0D03409F45DC0DD2381F1DF91CF915D
:101A20001F910F91FF90EF90DF90BF90AF900895BE
:101A3000D03A09F484C090F42C2F2F7141E0D038B3
:101A400069F7612FC701DF91CF911F910F91FF902F
:101A5000EF90DF90BF90AF900C945C06D03C09F4FF
:101A600075C0D03E09F4B4CFD9CF0E940D0A8E15AF
:101A70009F0541F2E114F10429F2D0CF8C2F8E7032
:101A800069F680E090E0892B49F28C2F8170DF911C
:101A9000CF911F910F91FF90EF90DF90BF90AF908B
:101AA0000C940000CF71CF3109F0B8CF4D2D4F7796
:101AB00061F0413061F02D2D221F2227221F0DE100
:101AC000612FC7010E941507A9CF41E0F4CF40E084
:101AD000F2CF2C2F30E08C2F8F71813029F030F035
:101AE000803121F0813109F540E001C041E095E00D
:101AF000359527959A95E1F721700DE1612FC70182
:101B00000E94150780E090E0892B09F487CF4C2FC5
:101B1000612FC701DF91CF911F910F91FF90EF903F
:101B2000DF90BF90AF900C940000C901880F991FFF
:101B30008E71C4FB442740F9482B4250D8CF2C2F3C
:101B40002F7043E0C4FF7DCF42E07BCFCF71CE3119
:101B500031F0CF3109F062CF2D2D45E072CF2D2D20
:101B600044E06FCF4F925F926F927F928F929F92DD
:101B7000AF92BF92CF92DF92EF92FF920F931F939B
:101B8000CF93DF93C0916902D0916A028091520293
:101B9000811116C02FB7F89480917302909174024E
:101BA000A0917502B09176022FBF80934E02909360
:101BB0004F02A0935002B093510281E080935202F1
:101BC00080914602811111C00E94DD0260517109AD
:101BD0008109910960934202709343028093440209
:101BE0009093450281E0809346020E94DD022B0122
:101BF0003C018FB7F894C0907302D0907402E090CB
:101C00007502F09076028FBF80914E02BC2CB81AFC
:101C100080914202909143029201281B390BC90125
:101C200020914102211169C0FE0130E020E0458190
:101C30005681C417D50709F056C045E0429F800180
:101C4000439F100D11240E5F1F4F0C0F1D1F10938B
:101C5000400200933F020115110509F458C0F80134
:101C6000148213828031910508F492C1853F91401E
:101C700008F0B4C18D8D9E8D0E944F05F8018083C0
:101C800081E080934102409242025092430260926E
:101C9000440270924502F6E0FB1508F47DC18D8D7B
:101CA0009E8D0E944F05A0903F02B09040029091FF
:101CB0004102E92FE695E695E695292F277041E048
:101CC00050E060E070E004C0440F551F661F771FAE
:101CD0002A95D2F7EA0DFB2DF11D811129C04095FF
:101CE0008081482327C02F5F3F4F3596253031052F
:101CF00009F09DCF10E000E0AACF26E02B1508F4F4
:101D00004BC18031910518F0853F914040F2DF9141
:101D1000CF911F910F91FF90EF90DF90CF90BF90E8
:101D2000AF909F908F907F906F905F904F900895AD
:101D30008081482B408381E0890F8093410240924B
:101D40004202509243026092440270924502982FE0
:101D50009770E9F68031E9F4F5018081873780F4E6
:101D6000EB8DFC8D309721F4BC8EAB8E07C0FC014F
:101D7000838194810097D9F7B482A38210924102A3
:101D8000C0924E02D0924F02E0925002F092510265
:101D9000BECF8831A9F7F50111811F778DEF782E1D
:101DA000710EF7E2F71580F088818130A1F4812E61
:101DB000912C1D3220F51B3228F4112351F121E022
:101DC000271508F18DE026C085ED810F883250F48B
:101DD0008881823061F3E0913F02F0914002D48328
:101DE000C383CCCF8DEA810F883220F48881833081
:101DF00091F7DDCF8EEF810F8230C8F6ECCF8DEA00
:101E0000810F8230F8F2C4018F579C4F0E945D0A07
:101E100001C08881F501028190819B3739F19F379C
:101E200009F46CC09737B9F60813D5CF61E08D8DF2
:101E30009E8D0E9464058D8D9E8D0E9443058FE6C8
:101E400097E10197F1F700C00000AD8DBE8D1496AB
:101E5000ED91FC911597808111969C91892B80833F
:101E600060E08D8D9E8D0E946405B5CF202F287077
:101E7000302F377004FF35C01D3278F51B3208F063
:101E8000AACF91E0971508F0A6CF41E050E060E0BE
:101E900070E004C0440F551F661F771F3A95D2F7B4
:101EA000182F142B211103C0142F10951823612F04
:101EB000C4018F579C4F0E949A0A18138CCF61E07F
:101EC0008D8D9E8D0E9464058D8D9E8D0E94430593
:101ED000EFE6F7E13197F1F7B6CF13551230A8F6D8
:101EE0007ACF90E002C0959587953A95E2F7817098
:101EF00099272817190609F06ECF98CF1B32D9F110
:101F000090F51330C1F1143009F465CF602FC4018E
:101F10008F579C4F0E949A0A08131FC061E08D8D55
:101F20009E8D0E9464058D8D9E8D0E9443058FE6D7
:101F300097E10197F1F700C00000AD8DBE8D1496BA
:101F4000ED91FC911597808111969C91892B80834E
:101F500060E08D8D9E8D0E94640511113CCF043090
:101F600078F4088338CF133531F0143509F433CFC2
:101F70001C3261F630CF083081F70E94E20A9FCF11
:101F800061E081E893E00E949A0A81E0888323CF90
:101F9000F6E0FB1508F0BBCE99E09B1508F0B7CE34
:101FA000C0924E02D0924F02E0925002F092510243
:101FB00000913F02109140028D8D9E8D0E944F0531
:101FC000F801808381E08093410240924202509266
:101FD0004302609244027092450299CE26E02B158E
:101FE000D8F295CE9F92AF92BF92CF92DF92EF92AE
:101FF000FF920F931F93CF93DF937C016B01942E7D
:1020000081E0F701481328C0A280B380E701219640
:10201000A114B10431F562E070E081E090E00E942B
:10202000A61F8C01009731F0FC01D182C08288810B
:102030008F5F8883F1E09F1242C0F7011383028310
:10204000DF91CF911F910F91FF90EF90DF90CF9094
:10205000BF90AF909F900895A580B680E701249629
:10206000D7CF88818F5F8883C82FD0E062E070E08F
:10207000CE010E94A61F8C0120E0AE014150510903
:10208000822F90E08417950764F0C150D048CC0FA0
:10209000DD1FC00FD11FD982C882C5010E945E20FA
:1020A000C9CF880F991FF501E80FF91F6081718171
:1020B000800F911FFC01718360832F5FE1CFF701D7
:1020C00016830583BDCF1F920F920FB60F92112476
:1020D0002F933F938F939F93AF93BF9380917302FE
:1020E00090917402A0917502B091760230915A02DB
:1020F00023E0230F2D3768F126E8230F0296A11D58
:10210000B11D20935A028093730290937402A0939E
:102110007502B093760280915B0290915C02A0916F
:102120005D02B0915E020196A11DB11D80935B021C
:1021300090935C02A0935D02B0935E02BF91AF9159
:102140009F918F913F912F910F900FBE0F901F90F5
:1021500018950196A11DB11DD4CF1F920F920FB6F5
:102160000F9211240BB60F922F933F934F935F93CF
:102170006F937F938F939F93AF93BF93EF93FF934F
:10218000E0915501F09156010995FF91EF91BF91B2
:10219000AF919F918F917F916F915F914F913F91FF
:1021A0002F910F900BBE0F900FBE0F901F901895A0
:1021B0001F920F920FB60F9211240BB60F922F930E
:1021C0003F934F935F936F937F938F939F93AF93BF
:1021D000BF93EF93FF93E0915301F0915401099560
:1021E000FF91EF91BF91AF919F918F917F916F91EF
:1021F0005F914F913F912F910F900BBE0F900FBEAB
:102200000F901F9018951F920F920FB60F921124E6
:102210000BB60F922F933F934F935F936F937F93E0
:102220008F939F93AF93BF93EF93FF93E0915101EF
:10223000F09152010995FF91EF91BF91AF919F915C
:102240008F917F916F915F914F913F912F910F905F
:102250000BBE0F900FBE0F901F9018951F920F92FC
:102260000FB60F9211240BB60F922F933F934F93FB
:102270005F936F937F938F939F93AF93BF93EF93EE
:10228000FF93E0914F01F09150010995FF91EF917B
:10229000BF91AF919F918F917F916F915F914F917E
:1022A0003F912F910F900BBE0F900FBE0F901F907C
:1022B00018951F920F920FB60F9211240BB60F9222
:1022C0002F933F934F935F936F937F938F939F933E
:1022D000AF93BF93EF93FF93E0914D01F0914E01C7
:1022E0000995FF91EF91BF91AF919F918F917F9150
:1022F0006F915F914F913F912F910F900BBE0F9077
:102300000FBE0F901F9018951F920F920FB60F924D
:1023100011240BB60F922F933F934F935F936F93BC
:102320007F938F939F93AF93BF93EF93FF93E0912E
:102330004B01F0914C010995FF91EF91BF91AF9145
:102340009F918F917F916F915F914F913F912F91CD
:102350000F900BBE0F900FBE0F901F9018951F92FD
:102360000F920FB60F9211240BB60F922F933F933B
:102370004F935F936F937F938F939F93AF93BF938D
:10238000EF93FF93E0914901F0914A010995FF9184
:10239000EF91BF91AF919F918F917F916F915F91DD
:1023A0004F913F912F910F900BBE0F900FBE0F904A
:1023B0001F9018951F920F920FB60F9211240BB613
:1023C0000F922F933F934F935F936F937F938F93CE
:1023D0009F93AF93BF93EF93FF93E0914701F091E9
:1023E00048010995FF91EF91BF91AF919F918F9116
:1023F0007F916F915F914F913F912F910F900BBE05
:102400000F900FBE0F901F9018951F920F920FB64E
:102410000F9211240BB60F922F933F934F935F931C
:102420006F937F938F939F93AF93BF93EF93FF939C
:1024300080917100887F803609F44DC008F040C05B
:10244000883209F4A9C028F5803109F49DC0C8F488
:10245000882309F407C1883009F496C0FF91EF91F1
:10246000BF91AF919F918F917F916F915F914F91AC
:102470003F912F910F900BBE0F900FBE0F901F90AA
:102480001895883109F488C0803241F78093AC04F4
:1024900014C0803409F4A5C040F48033B9F3883304
:1024A000E9F68093AC0485ECBCC0803509F489C0A2
:1024B000883509F49EC0883489F60E948705CECFFE
:1024C000883909F494C038F5883729F050F48836F3
:1024D00011F0803719F683E08093AE041092270242
:1024E00057C0883809F483C0803919F0803809F062
:1024F000B5CF80912702803208F079C0E0912702A1
:1025000081E08E0F8093270280917300F0E0E95FF5
:10251000FD4F80833DC0803B39F0E0F4803A09F400
:1025200085C0883A09F09ACF84E08093AE04109277
:10253000060210920502E0916102F0916202099593
:102540008091050281110FC081E0809305021092F5
:10255000E50109C0803C09F4A6CF883C09F4A3CF6B
:10256000883B09F07BCFE091060281E08E0F8093DB
:102570000602F0E0EB51FE4F808180937300909152
:1025800006028091050231C08091A70480937300F8
:1025900085EC8093740062CF9091A9048091A80487
:1025A0009817B8F58091AA049091AB04E091A90422
:1025B00021E02E0F2093A904E80FF92FF11D80814F
:1025C000E5CF2091AA043091AB04E091A90481E009
:1025D0008E0F8093A90480917300E20FF32FF11DF9
:1025E00080839091A9048091A804981788F285E8C7
:1025F000D0CF2091AA043091AB04E091A90481E0EE
:102600008E0F8093A90480917300E20FF32FF11DC8
:1026100080838091AD04811150CF81E08093A60426
:1026200084EA809374001092AE0418CF85EC8093F6
:1026300074001092AE0480912702803230F4E09151
:102640002702F0E0E95FFD4F10826091270270E001
:10265000E0915F02F091600287E092E009951092AC
:102660002702FCCE1092AC0428CF1F920F920FB617
:102670000F9211240BB60F92EF92FF920F931F93BC
:102680002F933F934F935F936F937F938F939F937A
:10269000AF93BF93CF93DF93EF93FF930FB6F8946D
:1026A000A89581B5886181BD11BC0FBE789485B7AE
:1026B0008F7D85BF1092BF01C1E0D1E0D093AF0400
:1026C000C093D1041092B0041092D2040E949901D8
:1026D000811105C08091BF018F5F8093BF01CF5FE3
:1026E000CF3761F78091BD019091BE01009731F025
:1026F0000E945E201092BE011092BD01D091BF01D8
:10270000DD2371F161E070E08D2F90E00E94A61F43
:102710007C019093BE018093BD0110E0C1E001E017
:102720000093AF04C093D1041092B0041092D2046D
:102730000E949901811105C0F701E10FF11DC083CD
:102740001F5FCF5FCF3761F7D23050F080918A00A2
:10275000887F80938A0080917D008B7F80937D00AD
:10276000109288001092890085B7806285BFFF9122
:10277000EF91DF91CF91BF91AF919F918F917F9119
:102780006F915F914F913F912F911F910F91FF900A
:10279000EF900F900BBE0F900FBE0F901F901895EB
:1027A0001F920F920FB60F9211240BB60F922F9318
:1027B0003F934F935F936F937F938F939F93AF93C9
:1027C000BF93CF93DF93EF93FF937894CDE5D1E060
:1027D000E991F991808187FF08C08F772091BC0132
:1027E0009181921720F10E943E0881E0C33AD807F8
:1027F00079F786E984BD8091BC018F5F8032D1F08A
:102800008093BC01FF91EF91DF91CF91BF91AF9188
:102810009F918F917F916F915F914F913F912F91F8
:102820000F900BBE0F900FBE0F901F9018950E9437
:102830005F07DBCF1092BC01E5CFE3EDF4E013823C
:10284000128288EE93E0A0E0B0E084839583A683B3
:10285000B78387EA91E0918380830895CF93DF93D4
:1028600000D01F92CDB7DEB7789483B78C6483BF56
:1028700087B7816087BF22E02EBD8EB581608EBD97
:102880008FB581608FBD85B5846085BD85B5806459
:1028900085BD80918A00836080938A0080918B003F
:1028A000816080938B0087E886B91AB80FB6F894D8
:1028B000A89581B5886181BD11BC0FBE1ABA17BA3F
:1028C00014BA11BA12B8109261001092640061E05B
:1028D00081E00E94A10281E00E94F1011092640255
:1028E000109263021092B0041092D2041092AE04BF
:1028F00081E08093AD041092A60483E10E94F1016F
:1029000082E10E94F101809171008C7F80937100BF
:1029100088E48093700085E4809374008BE692E0F5
:10292000909362028093610287E792E09093600245
:1029300080935F0232E0309372008CE080937000ED
:1029400083E09BE0909366028093650287E396E0C4
:102950009093680280936702BA9A159A149A139A10
:10296000129ABE9A8F9A8E9A8D9A8C9A8091640050
:10297000806180936400809164008860809364002B
:102980008091610080618093610080916100886026
:1029900080936100809161008460809361008091E8
:1029A000610082608093610080916100816080930A
:1029B0006100809164008160809364008091640074
:1029C000826080936400A09AA19AA29AA39AA49A82
:1029D000BC9ABB9A80916100806280936100809173
:1029E0006100806480936100BF9AD69AD19AD79A89
:1029F00080916400846080936400BD9AA59AA79A30
:102A00008DE190E00E944F1F80938A048CE190E05A
:102A10000E944F1F80938B048DE190E00E944F1F16
:102A200085FFDDC281E190E00E944F1F8F73482F28
:102A300050E0942F88279B838A8382E190E00E9454
:102A40004F1FAA81BB81A82BBB83AA832A813B810C
:102A500030938E0420938D0483E190E00E944F1FF9
:102A600080938F0480E88093900480939104E9EB35
:102A7000CE2EE1E0DE2EFDE5EF2EF1E0FF2EA3EA03
:102A8000AA2EA1E0BA2EB7E09B2EF6010591149173
:102A9000C8010E944F1F8983C80101960E944F1FE1
:102AA0008A830E5F1F4FC8010E944F1F803228F09B
:102AB0006FE1C8010E94681F8FE1D7010D911D9140
:102AC0007D01F8018183FA81F03809F499C2F13867
:102AD00009F49FC2F11113C03981399D900111246D
:102AE00029553D4F3B832A8341E0B801C9010E942B
:102AF000F20F40E0B8018A819B810E94F20F82E0D0
:102B0000C80ED11CAE14BF0409F0BFCF85E190E020
:102B10000E944F1F80FF05C09091AE029460909379
:102B2000AE0281FF05C09091B50294609093B5020A
:102B300082FF05C09091BC0294609093BC0283FF19
:102B400005C09091C30294609093C30284FF05C0B6
:102B50009091CA0294609093CA0285FF05C090913B
:102B6000D10294609093D10286FF05C09091D80263
:102B700094609093D80287FF05C08091DF02846043
:102B80008093DF0286E190E00E944F1F80FF05C026
:102B90009091A70294609093A70282FF05C0909144
:102BA000E60294609093E60283FF05C09091ED02E7
:102BB00094609093ED0284FF05C09091F4029460BC
:102BC0009093F40285FF05C09091FB02946090936E
:102BD000FB0286FF05C0909102039460909302036C
:102BE00087FF05C0809109038460809309038FE10A
:102BF00090E00E94C21F9B838A8385E1AA81BB81EA
:102C000011968C9386E090E00E94C21FDC01E8E9F7
:102C1000F2E0E4911196EC931197E3E6F2E024914F
:102C20002C9330E0220F331FF901E75FFD4F8591B0
:102C3000949113969C938E931297F901E75DFD4F43
:102C40008591949115969C938E931497EA81FB81BC
:102C5000B68FA58FF093A504E093A40481E893E0D8
:102C60000E945D0AAA81BB818C93843048F061E0A8
:102C700081E893E00E949A0A81E0EA81FB818083E7
:102C80002A813B8130936A0220936902D90111960F
:102C90008C918F3FA1F060E00E94A102EA81FB814C
:102CA00081819CEF980F943020F08251843008F09D
:102CB0008FEF42E050E062EB7DE00E94030360E0B2
:102CC000AA81BB815D968D919C910E9464052A81A9
:102CD0003B81F9013683258333872287308B278711
:102CE000358B248B328F218F148E138E82E080934C
:102CF0009E0284E180939F02EDE4F2E0E491F0E033
:102D0000EE0FFF1FE75EFD4F859194919093A10216
:102D10008093A002E2E8F2E0E491E093A20260E096
:102D200084E10E94A102E7E7F2E086E1DF011D9263
:102D30008A95E9F782E990E09093700280936F02A0
:102D400082E590E090936E0280936D0210928D0266
:102D500010928E028FEF9FEF9093A4028093A302B4
:102D60001092A50283E080936C028091A20280936E
:102D70006B0243E050E06AE773E080919E020E949C
:102D800003038DE190E00E940B0A682F6F738DE1C1
:102D900090E00E94300C8093A60262E187E090E010
:102DA0000E94300C6DE088E090E00E94300C80E0E2
:102DB0000E948B0A14BC15BC85B5887F85BD87B77A
:102DC000806487BF85B5836085BD109288001092AE
:102DD000890010928A0010928B0080918A00846092
:102DE00080938A0080917D00846080937D0085B708
:102DF000837E85BF85B7806285BFB1E0B98320E05F
:102E0000C22E20E0D22E30E0432E30E0532E40E0A0
:102E1000642E40E0742E50E0E52E50E0F52E60E088
:102E2000A62E60E0B62EE0917102F091720230970A
:102E300009F0F5C0E981EB3009F0B9C2FBE0F98394
:102E400080918C0482FF20C087EA92E09B838A8372
:102E500015E46091900480918A0480FF08C7609512
:102E6000661F6627661F8A819B810E94CA091150CE
:102E7000AA81BB811796BB83AA831111EACF8091E7
:102E80008C048B7F80938C0480918C0483FF21C001
:102E9000E7EAF2E0FB83EA8315E460919104809114
:102EA0008F0487FFE6C66095661F6627661F8A81C6
:102EB0009B810E94780911502A813B81295F3F4FF5
:102EC0003B832A831111E9CF80918C04877F809303
:102ED0008C0480918C0480FF3EC00AE814E028EF47
:102EE000822E912C37E0332E9110DEC68091920411
:102EF00084FFC1C687EA92E00E94940980919204FF
:102F000080FFBEC68EEA92E00E94940980919204EE
:102F100081FFBBC685EB92E00E94940980919204E8
:102F200082FFB8C68CEB92E00E94940980919204D3
:102F300083FFB5C683EC92E00E94940993940F5FDF
:102F40001F4FF8E08F0E29E09212CECF80918C04B3
:102F50008E7F80938C0480918C0481FF3EC00AE8B0
:102F600014E088EF882E912C97E0392E911026C717
:102F700080919B0484FF09C787EA92E00E9441097F
:102F800080919B0480FF06C78EEA92E00E9441096F
:102F900080919B0481FF03C785EB92E00E94410969
:102FA00080919B0482FF00C78CEB92E00E94410954
:102FB00080919B0483FFFDC683EC92E00E9441094F
:102FC00093940F5F1F4FF8E08F0E29E09212CECF3F
:102FD00080918C04877F80938C04889524CF81E036
:102FE00090E00E944F1F181634F063E081E090E0FB
:102FF0000E94571F83E0E82FF0E0FB83EA8326CD91
:103000004981499DC001112440E0B80189559D4F77
:1030100074CD5981599DC001112441E0F6CF20E0C3
:1030200030E0232B21F0618180810E940000E0913B
:103030007102F09172028081813409F405C108F0B7
:1030400052C08A3209F463C168F5843209F45AC067
:1030500088F4813209F40DC1833209F413C181115E
:1030600014C0A0E0B0E0AB2B09F45CC081810E94E9
:10307000000058C0863209F419C108F42BC1883207
:1030800009F435C1893209F43BC182819381AFEFE4
:10309000BFEFB383A2839093720280937102BBE06F
:1030A000B983CECE8E3209F447C158F48C3209F47C
:1030B0003CC108F433C1E114F104A1F1618185E060
:1030C0001CC1803309F446C108F43DC1813309F4C1
:1030D0004AC18034D1F6C114D10421F1618180E06C
:1030E0000E9400001FC0823609F471C0A0F581352E
:1030F00009F4F0C080F4833409F4B4C008F4ABC020
:10310000803519F6818160E087FF02C061E0805858
:103110000E94540207C08E3509F42CC1A0F48235F8
:1031200009F0B3CFE0917102F09172028281938134
:103130002FEF3FEF338322839093720280937102CB
:103140003BE039837DCE8036E9F1813609F09DCFB1
:10315000618181E039C0873609F445C058F484366E
:10316000E1F1C0F18536E1F1863609F08ECF61815B
:1031700086E02AC08C3609F411C130F4883609F093
:1031800084CF618188E020C08D3681F18E3609F0D0
:103190007CCFA281B381109709F450CE8C918F36E9
:1031A00009F64114510409F4BDCF2181622F661F35
:1031B0006627661F11968C91A0E88A9FC001112492
:1031C000822B3FC0618180E00E944502ABCF6181CC
:1031D00082E0FACF618183E0F7CF618184E0F4CFB0
:1031E000618185E0F1CF618187E0EECF6181862F3B
:1031F0008F774114510409F495CF811120C01B82AF
:103200001A8267FD0FC04A815B814F5F5F4F5B830E
:103210004A834038510509F485CF60E0CA010E9415
:103220000000F1CF8A819B8101969B838A8380383D
:10323000910509F477CF61E00E940000F3CF607838
:1032400090E00E9400006ECFC114D10409F46ACF4F
:10325000618181E045CFC114D10409F463CF61815C
:1032600082E03ECFC114D10409F45CCF618183E0D8
:1032700037CF20E030E0232B09F454CF81810E9426
:10328000000050CF40E050E0452B09F44BCF818146
:1032900087FD06C0082E000C990B0E94000042CF4B
:1032A000819590E0919581959109F7CF80E090E02C
:1032B000892B09F437CF818187FD06C0082E000CC9
:1032C000990B0E9400002ECF819590E091958195F9
:1032D0009109F7CF6114710409F424CF818160E072
:1032E00087FF02C061E080580E9400001BCFE114FC
:1032F000F10409F417CF618180E00E94000012CF31
:10330000E114F10409F40ECF618181E0F6CFE114FC
:10331000F10409F407CF618182E0EFCFE114F104F9
:1033200009F400CF618183E0E8CFE114F10409F4EE
:10333000F9CE618184E0E1CFE114F10409F4F2CE29
:10334000618186E0DACFE114F10409F4EBCE61810A
:1033500087E0D3CFA114B10409F4E4CE618181E008
:103360000E940000DFCEA114B10409F4DBCE61811C
:1033700082E0F6CFA281B381109709F45FCD8C91E2
:103380008F3509F0CFCE20E030E0232B09F4CACEF0
:1033900011969C9181810E940000C4CE40E050E0D3
:1033A000452B09F4BFCE81810E940000BBCE409125
:1033B000A4045091A5045B834A83DA015B96ED91E6
:1033C000FC91309709F4B2C120E030E0232B21F0CA
:1033D000618180810E940000AA81BB815B96ED9192
:1033E000FC918081813409F4F4C008F051C08A3224
:1033F00009F44CC160F5843209F459C088F4813273
:1034000009F4FCC0833209F402C1811114C0A0E0A8
:10341000B0E0AB2B09F45BC081810E94000057C073
:10342000863209F405C108F414C1883209F41EC1BA
:10343000893209F424C183819481AA81BB81B48338
:10344000A3835C969C938E935B97BAE029CE8E32D1
:1034500009F431C158F48C3209F426C108F41DC1B5
:10346000E114F104A1F1618185E006C1803309F422
:1034700030C108F427C1813309F434C18034D9F64E
:10348000C114D10421F1618180E00E9400001FC0BD
:10349000823609F468C060F5813509F4DAC080F439
:1034A000833409F4A4C008F49BC0803521F68181DF
:1034B00060E087FF02C061E080580E94540207C0AC
:1034C0008E3509F416C160F4823509F0B4CFAA81B3
:1034D000BB815B96ED91FC915C9783819481AFCF2A
:1034E0008036E1F1813609F0A6CF618181E038C0F4
:1034F000873609F444C058F48436D9F1B8F18536DA
:10350000D9F1863609F097CF618186E029C08C36E3
:1035100009F403C130F4883609F08DCF618188E069
:103520001FC08D3679F18E3609F085CFA381B48125
:10353000109709F497C38C918F3649F641145104C2
:1035400031F22181622F661F6627661F11968C91CA
:10355000B0E88B9FC0011124822B38C0618180E0CC
:103560000E944502B4CF618182E0FACF618183E09D
:10357000F7CF618184E0F4CF618185E0F1CF618193
:1035800087E0EECF4114510409F4A1CF6181862F69
:103590008F77D1F410E000E067FD0BC00F5F1F4F85
:1035A0000038110509F493CF60E0C8010E940000C3
:1035B000F5CF0F5F1F4F0038110509F488CF61E088
:1035C000C8010E940000F5CF607890E00E940000E2
:1035D0007ECFC114D10409F47ACF618181E055CF47
:1035E000C114D10409F473CF618182E04ECFC114BC
:1035F000D10409F46CCF618183E047CF20E030E053
:10360000232B09F464CF81810E94000060CF40E049
:1036100050E0452B09F45BCF818187FD03C00E94F8
:10362000000055CF819590E0919581959109F7CF54
:1036300080E090E0892B09F44ACF818187FD03C0A7
:103640000E94000044CF819590E091958195910969
:10365000F7CF6114710409F43ACF818160E087FFEC
:1036600002C061E080580E94000031CFE114F104F3
:1036700009F42DCF618180E00E94000028CFE11481
:10368000F10409F424CF618181E0F6CFE114F10463
:1036900009F41DCF618182E0EFCFE114F10409F458
:1036A00016CF618183E0E8CFE114F10409F40FCF74
:1036B000618184E0E1CFE114F10409F408CF618174
:1036C00086E0DACFE114F10409F401CF618187E0EB
:1036D000D3CFA114B10409F4FACE618181E00E9434
:1036E0000000F5CEA114B10409F4F1CE618182E0AD
:1036F000F6CFA381B481109709F4B6C28C918F35AF
:1037000009F0E5CE20E030E0232B09F4E0CE11965D
:103710009C9181810E940000DACE40E050E0452B70
:1037200009F4D5CE81810E940000D1CEE981E1303B
:1037300009F086CB80918F028823F1F02FB7F8949F
:103740008091730290917402A0917502B0917602FB
:103750002FBF40919002509191026091920270911E
:103760009302841B950BA60BB70B4597A105B105DA
:1037700018F080E00E948B0A80917902882309F476
:103780005FCBF89488E0E5E8F2E0AFEDB4E00190BB
:103790000D928A95E1F71092790278948091DF0476
:1037A000E82FF0E0EF51FB4F863018F411928F5F55
:1037B000FBCF80E090E0892B21F08FED94E00E9418
:1037C00000008091E104811117C09091E2049111F1
:1037D00013C080E090E0892B19F080E00E94000087
:1037E00080918F02882321F081E00E94EB0828CB92
:1037F00081E00E948B0A24CB90918F02992309F4D7
:1038000095C08057803108F08EC081E00E94EB089F
:10381000F091DF04FA8380919602F8130AC04F2FCB
:1038200050E068E972E081EE94E00E94E720892B85
:1038300061F01092950288E0EFEDF4E0A6E9B2E0C5
:1038400001900D928A95E1F7FBCA809195028F5FF6
:10385000809395022A81233009F04CC09091E104B5
:10386000892F87701091E204853029F41093940217
:103870000E94E609E5CA843059F1282F30E08430EF
:1038800010F5409194024423F1F0A42FA150BB0BFA
:10389000AA0FBB1FAA0FBB1FA20FB31F1196BB839A
:1038A000AA8393FF1AC061E08A819B810E94C10BA9
:1038B000882309F4C5CA612F8A819B810E94300C3C
:1038C0001813BECAD5CFF9013196FB83EA83E9CF3D
:1038D0002DE130E03B832A83E4CF60E08A819B8145
:1038E0000E94C10B882309F4ABCA8A819B810E9484
:1038F0000B0AE6CF3A81343009F0A2CA8091E10484
:10390000682F70E0762F6627662773709091E20427
:10391000692B6F5F7F4F2FEE39E04091E3048C708D
:103920000E94530C8DCA80E00E948B0AE091E10452
:10393000EF3F61F48091E204811182CA80E090E05F
:10394000892B09F47DCA0E9400007ACAE7FD0CC0E9
:103950000091E4042091E3044091E20460E08E2FA2
:1039600090E00E94C10C6CCAE03C08F06BC19091E1
:103970008D0297FF65CA8091E204282F30E0A901EB
:1039800040955095440F551F440F551F407C517072
:10399000EF734E2B5B834A8335952795522F5370D7
:1039A000352E2091DF04253069F58C788C3051F567
:1039B0000E940D0AAA81BB818A179B0721F0AF3FA5
:1039C000B14009F03DCAF091E2042F2F30E0522FB0
:1039D0004427442753708091E304480F511D4F5FE3
:1039E0005F4F5B834A831091E40461E0CA010E9447
:1039F000C10B612F882309F423CA8A819B810E940D
:103A0000300C1ECA8A809B8051E0851A9108880C70
:103A1000991C880C991C832884010F5F1F4F80918B
:103A2000A5028823F9F096FF41C0C80160E071E06B
:103A30000E94751F682F81E090E00E94300CC80141
:103A400017FF02C081509F4F692F89E090E00E94CC
:103A5000300C80E090E0892B19F0C8010E94000032
:103A60001092A50280918D0280FD3CC08091DF0400
:103A7000843009F052C08091E2048978813009F0E5
:103A8000DFC96091E30480E090E0892B19F0C80160
:103A90000E94000080E090E0892B09F4D1C9409198
:103AA000E304632DC8010E940000CAC96A817B81BA
:103AB0006F73772781E090E00E94300C6A817B81F0
:103AC000E6E075956795EA95E1F789E090E00E9458
:103AD000300C80E090E0892B19F28A819B810E9452
:103AE0000000BECF86FF0CC00E940D0A8017910710
:103AF00009F4BCCF0D3F87E018070CF0B7CFA0C981
:103B00000E940D0AAA81BB818A179B0709F4AECFD8
:103B1000AF3FB14009F4AACF93C9833079F5409102
:103B2000E204F42FF1708F2E43FB992490F880E08B
:103B300090E0892B39F04770292D6A817B81C8017B
:103B40000E94000080918D0286FF0BC080E090E013
:103B5000892B09F475C9492D682DC8010E94000000
:103B60006FC980E090E0892B09F46AC9292D482D9E
:103B7000632D8A819B810E94000062C9863009F012
:103B80005FC98091E204982F9978913021F08F7865
:103B9000803809F055C980918D0286FF2BC00E94A4
:103BA0000D0A8017910711F58091E30490E0382FFA
:103BB0002227222733704091E404A42FA20FB32FB1
:103BC000B11D1196BB83AA831091E5049595879545
:103BD000959587958370992782309105B1F0039769
:103BE00009F02EC961E08A819B8101CF0D3F17400A
:103BF000DCF626C90E940D0AEA81FB818E179F0719
:103C000099F2EF3FF14081F21BC914FF19C961E03D
:103C10008A819B810E94C10B882309F411C98A8182
:103C20009B810E940B0A912F977061E070E001C0A8
:103C3000660F9A95EAF713FF02C0682BDECE6095F7
:103C40006823DBCEE83E08F0FBC8E05CFF0B809108
:103C5000E2040091E5042091E4044091E30461E072
:103C60009E2F7FCE3AE06DCA4AE04983E9C860786A
:103C7000FAC860781CC987EA92E00E9436083EC9FB
:103C80008EEA92E00E94360841C985EB92E00E94DC
:103C9000360844C98CEB92E00E94360847C983EC91
:103CA00092E00E9436084AC9882D90E00596389E19
:103CB000A001399E500D11245B834A83CA018955A6
:103CC0009D4FD80118962C9120FF4AC00E9494095C
:103CD0008A819B8182559D4FF801208521FF43C039
:103CE0000E9494098A819B818B549D4FD80118961C
:103CF0002C9122FF3BC00E9494098A819B818454AD
:103D00009D4FF801208523FF34C00E9494098A81C9
:103D10009B818D539D4FD80118962C9124FF2CC068
:103D20000E9494098A819B8186539D4FF8012085CA
:103D300025FF25C00E9494098A819B818F529D4F47
:103D4000D80118962C9126FF1DC00E9494098A81E3
:103D50009B8188529D4FF801208527FFA2CFECC898
:103D60000E943608B5CF0E943608BCCF0E943608A4
:103D7000C4CF0E943608CBCF0E943608D3CF0E9412
:103D80003608DACF0E943608E2CF87EA92E00E9436
:103D90002D08F6C88EEA92E00E942D08F9C885EB3E
:103DA00092E00E942D08FCC88CEB92E00E942D0846
:103DB000FFC883EC92E00E942D0802C9882D90E094
:103DC0000596389EA001399E500D11245B834A83CD
:103DD000CA0189559D4FD80151962C9120FF4AC0A8
:103DE0000E9441098A819B8182559D4FF80121895A
:103DF00021FF43C00E9441098A819B818B549D4FC2
:103E0000D80151962C9122FF3BC00E9441098A8122
:103E10009B8184549D4FF801218923FF34C00E9467
:103E200041098A819B818D539D4FD80151962C91D8
:103E300024FF2CC00E9441098A819B8186539D4F9B
:103E4000F801218925FF25C00E9441098A819B81B3
:103E50008F529D4FD80151962C9126FF1DC00E9474
:103E600041098A819B8188529D4FF801218927FF52
:103E7000A2CFA4C80E942D08B5CF0E942D08BCCFA8
:103E80000E942D08C4CF0E942D08CBCF0E942D0880
:103E9000D3CF0E942D08DACF0E942D08E2CFE199FE
:103EA000FECF9FBB8EBBE09A99278DB30895262F36
:103EB000E199FECF9FBB8EBBE09A01970DB202162F
:103EC00031F02DBB0FB6F894E29AE19A0FBE089537
:103ED000262FE199FECF9FBB8EBB2DBB0FB6F8946A
:103EE000E29AE19A0FBE0196089597FB072E16F409
:103EF000009407D077FD09D00E94921F07FC05D0DF
:103F00003EF4909581959F4F0895709561957F4FF0
:103F10000895EE0FFF1F0024001C0BBE0790F691C2
:103F2000E02D0994AA1BBB1B51E107C0AA1FBB1FB0
:103F3000A617B70710F0A61BB70B881F991F5A9535
:103F4000A9F780959095BC01CD0108950F931F931B
:103F5000CF93DF93869F8001879F100D969F100D52
:103F60001124C8010E94C21FEC01009729F0A8018A
:103F700070E060E00E94F420CE01DF91CF911F91AC
:103F80000F9108950F931F93CF93DF938230910584
:103F900010F482E090E0E091E904F091EA0430E06E
:103FA00020E0B0E0A0E0309799F42115310509F444
:103FB0004AC0281B390B24303105D8F58A819B81F2
:103FC0006115710589F1FB0193838283FE0111C0A4
:103FD000408151810281138148175907E0F0481749
:103FE000590799F4109761F012960C931297139653
:103FF0001C933296CF01DF91CF911F910F910895BD
:104000000093E9041093EA04F4CF2115310551F02F
:104010004217530738F0A901DB019A01BD01DF0106
:10402000F801C1CFEF01F9CF9093EA048093E9043E
:10403000CDCFFE01E20FF31F8193919322503109FE
:1040400039832883D7CF2091E7043091E804232BCC
:1040500041F42091590130915A013093E8042093A2
:10406000E70420915701309158012115310541F4A1
:104070002DB73EB740915B0150915C01241B350B7D
:10408000E091E704F091E804E217F307A0F42E1B97
:104090003F0B2817390778F0AC014E5F5F4F2417AC
:1040A000350748F04E0F5F1F5093E8044093E70434
:1040B000819391939FCFF0E0E0E09CCFCF93DF938B
:1040C0000097E9F0FC01329713821282A091E90473
:1040D000B091EA04ED0130E020E01097A1F42081D6
:1040E0003181820F931F2091E7043091E804281753
:1040F000390709F061C0F093E804E093E704DF9129
:10410000CF910895EA01CE17DF07E8F54A815B8178
:104110009E0141155105B1F7E901FB83EA834991FD
:104120005991C40FD51FEC17FD0761F4808191816F
:104130000296840F951FE901998388838281938178
:104140009B838A83F0E0E0E012968D919C91139717
:104150000097B9F52D913C911197CD010296820FF0
:10416000931F2091E7043091E8042817390739F6A6
:10417000309751F51092EA041092E904B093E804E4
:10418000A093E704BCCFD383C28340815181840FC5
:10419000951FC817D90761F44E5F5F4F88819981D9
:1041A000480F591F518340838A819B819383828367
:1041B0002115310509F0B0CFF093EA04E093E9044A
:1041C0009ECFFD01DC01C0CF13821282D7CFFB014D
:1041D000DC0104C08D910190801921F441505040C0
:1041E000C8F7881B990B0895DC0101C06D934150FD
:0A41F0005040E0F70895F894FFCF67
:1041FA0023FF22FF21FF20FF1FFF1EFF1DFF1CFFC1
:10420A001BFF1AFF19FF18FF17FF16FF15FF14FFF0
:10421A0013FF12FF11FF10FF0FFF0EFF0DFF0CFF20
:10422A000BFF0AFF09FF08FF07FF06FF05FF04FF50
:10423A0003FF02FF01FF0142050000000000000029
:10424A00000000000000000000EB0480004401426E
:10425A000140013E013C013A013801360134013284
:10426A000130012E012C012A0128012601240122F4
:10427A000120011E011C011A011801160114011264
:10428A000110010E010C010A0108010601040102D4
:10429A00010001000000000806DB054F06B8058092
:0642AA0005C805B905007E
:00000001FF
